S3150800000070070020890100082D140008FF0F00085A
S31508000010291400085B0500081523000800000000E5
S31508000020000000000000000000000000611A00083F
S31508000030130B000800000000F31800084D1B000809
S31508000040A3010008A3010008A3010008A3010008F2
S31508000050A3010008A3010008A3010008A3010008E2
S31508000060A3010008A3010008A3010008A3010008D2
S31508000070A3010008A3010008A30100086105000800
S31508000080A3010008A3010008A3010008A3010008B2
S31508000090A3010008A3010008A3010008A3010008A2
S315080000A0A3010008A3010008A3010008A301000892
S315080000B0B11B0008011F0008D51F0008A30100088E
S315080000C0A3010008A3010008A3010008A301000872
S315080000D0A3010008A3010008A3010008A301000862
S315080000E0A3010008A3010008A301000800F002F814
S315080000F000F03AF80AA090E8000C82448344AAF17A
S315080001000107DA4501D100F02FF8AFF2090EBAE877
S315080001100F0013F0010F18BFFB1A43F0010318472D
S31508000120E02F000000300000103A24BF78C878C1DC
S31508000130FAD8520724BF30C830C144BF04680C60DF
S31508000140704700000023002400250026103A28BF27
S3150800015078C1FBD8520728BF30C148BF0B6070472B
S315080001601FB51FBD10B510BD00F0CCF81146FFF73E
S31508000170F7FF02F02DF900F0EAF803B4FFF7F2FFF3
S3150800018003BC00F0F1F80000094880470948004719
S31508000190FEE7FEE7FEE7FEE7FEE7FEE7FEE7FEE729
S315080001A0FEE7FEE704480549054A064B7047000086
S315080001B0511B0008ED0000087001002070070020A0
S315080001C0700300207003002010B54C1084EA530415
S315080001D004D54042C1F1000138BF491E1B4204D56F
S315080001E05242C3F1000338BF5B1E00F014F814F046
S315080001F0804F04D04042C1F1000138BF491E14F0B7
S31508000200004F04D05242C3F1000338BF5B1E10BD35
S3150800021070477047704753EA020C00F069802DE971
S31508000220F04B4FF00006002B1FBFB3FA83F503FA15
S3150800023005F424FA05F65E4012BF1643B2FA82F5B3
S3150800024002FA05F4C5F120051EBF22FA05FC44EAA8
S315080002500C04203556EA044C4FEA144418BF641CB3
S315080002604FF000084FF00009904271EB030C39D3A8
S31508000270002919BFB1FA81F701FA07F6B0FA80F733
S3150800028000FA07F6C7F120071EBF20FA07FC46EA60
S315080002900C062037B6FBF4FCA7EB0507103F07F062
S315080002A01F0BCBF120060CFA0BFB2CFA06F644BF03
S315080002B0B3460026202FA4BF5E464FF0000B5BEA2C
S315080002C0060C08BF4FF0010B19EB0B09ABFB027CC0
S315080002D048EB0608C01B06FB02CC0BFB03CC71EBF4
S315080002E00C01C1E70B46024641464846BDE8F08B7D
S315080002F013B54FF000004FF00001AFF30080BDE8E2
S315080003001C407047754600F02BF8AE460500694656
S31508000310534620F00700854618B020B5FFF742FF80
S31508000320BDE820404FF000064FF000074FF00008E8
S315080003304FF0000B21F00701AC46ACE8C009ACE869
S31508000340C009ACE8C009ACE8C0098D46704710B5CD
S315080003500446AFF300802046BDE81040FFF70DBF06
S31508000360004870470C01002001491820ABBEFEE783
S3150800037026000200704721B1826842F001028260BD
S3150800038003E0826822F001028260704721B1826828
S3150800039042F48072826003E0826822F4807282608E
S315080003A07047000010B504461248844208D101215E
S315080003B0401501F0DBFA0021601501F0D7FA17E0C5
S315080003C00D48844208D10121001501F0CFFA002119
S315080003D0201501F0CBFA0BE00848844208D1012128
S315080003E0C80301F0C3FA00214FF4004001F0BEFA39
S315080003F010BD00000024014000280140003C0140D7
S31508000400014600208A6802F004020AB1012000E0D1
S3150800041000207047014600208A6802F008020AB1E7
S31508000420012000E00020704730B502460020002376
S3150800043050680F4C20400D790C6844EA0524204387
S31508000440506090680B4C2040D1E902542C434D79FA
S3150800045044EA450420439060D06A20F470000C7C7E
S31508000460641EE4B2234340EA0350D06230BD000064
S31508000470FFFEF0FFFDF7F1FFF0B504460D4600203C
S315080004800021092D11DDE068A5F10A0606EB4607ED
S31508000490072606FA07F18843A5F10A0606EB46067B
S315080004A003FA06F10843E0600CE0206905EB45070E
S315080004B0072606FA07F1884305EB450603FA06F10F
S315080004C008432061072A0FDA606B561E06EB86077B
S315080004D01F2606FA07F18843561E06EB860605FA16
S315080004E006F10843606322E00D2A0FDA206BD61F57
S315080004F006EB86071F2606FA07F18843D61F06EB82
S31508000500860605FA06F10843206310E0E06AA2F1C0
S315080005100D0606EB86071F2606FA07F18843A2F1A1
S315080005200D0606EB860605FA06F10843E062F0BDFD
S31508000530816841F008018160704721B1826842F400
S31508000540A002826003E0826822F4A00282607047FB
S31508000550816841F004018160704700BFFEE7000032
S3150800056010B54FF4003000F095FA00286FD04FF41C
S31508000570003000F0CFF90121494800F093FD002131
S31508000580484800F0D5F90021454800F067FD46487F
S315080005900088401C4449088008460088202813DB48
S315080005A001204249087042480068424908604048AC
S315080005B000684149884201D1404800E03E483C492C
S315080005C008600020384908800221364800F09FFA62
S315080005D0354800883649096801EB400031495839E1
S315080005E0486601212E4800F051FD4FF47A7400E068
S315080005F0641E33492A4800F010FD08B9002CF7D1CB
S3150800060000220C21264800F0F1FD4FF47A7400E030
S31508000610641E2C49224800F000FD08B9002CF7D1C9
S3150800062003211F4800F0EBFD4FF47A7400E0641EC6
S315080006302449891C1A4800F0F0FC08B9002CF6D1A8
S315080006400121174800F022FD4FF47A7401E025E0F5
S31508000650641E1B49124800F0E0FC08B9002CF7D1CB
S3150800066001220C210E4800F0C1FD4FF47A7400E017
S31508000670641E1349491C0A4800F0CFFC08B9002C2F
S31508000680F6D10121064800F0F5FC0121044800F0E6
S31508000690E5FC0121034800F04BF900BF10BD00003E
S315080006A00058004058000240400000204200002048
S315080006B0380000203C0000208C000020CC000020E0
S315080006C0010003008200070070B50246094830F8A9
S315080006D01130D01A04B240F6E440604340F6FF7683
S315080006E090FBF6F54FF47A706843B92690FBF6F05E
S315080006F070BD00001A0000203EB500200090019051
S315080007000290002417E001211348FFF716FF012085
S3150800071000F000FA114909880098084400900F492A
S3150800072049880198084401900C4989880298084428
S315080007300290601C84B2802CE5DB0098C0F3CF10D1
S31508000740074908800198C0F3CF1048800298C0F383
S31508000750CF1088803EBD0000002401401400002010
S315080007601A00002000B591B00121480201F0EEF808
S315080007700121042001F0EAF80121084601F0C6F833
S315080007804FF4004001F0B6F800208DF84300E02051
S31508000790ADF8400003208DF8420010A93E4800F04D
S315080007A095FB3E4800F0D0F80320089000200790FB
S315080007B00F9020200D90C0010E90394806904FF4F6
S315080007C080600C9080200A903648059080150B9022
S315080007D00020099005A9314800F07BF901212F482E
S315080007E000F0A6F82F484C38FFF7DCFD00200090F3
S315080007F001208DF804008DF805004FF46020029062
S315080008000020039003208DF81000694625484C38CF
S31508000810FFF70AFE06230122052122484C38FFF776
S315080008202BFE0623022219461E484C38FFF724FEE3
S315080008300623032207211B484C38FFF71DFE01211A
S3150800084018484C38FFF7A2FD012116484C38FFF727
S3150800085092FD14484C38FFF76BFE00BF11484C3820
S31508000860FFF7D8FD0128F9D00E484C38FFF770FE7F
S3150800087000BF0C484C38FFF7C3FD0128F9D000F03B
S3150800088013F8012107484C38FFF757FEC82000F037
S3150800089041F911B000BD00000008014008000240FF
S315080008A0140000204C2401401FB50121022001F04C
S315080008B03DF80020ADF80A00ADF8060041F61F40E5
S315080008C0ADF808000020ADF804008DF80C0001A969
S315080008D00F4801F0CDFC20210D4801F0B9FC00229B
S315080008E001210B4801F0ACFB1D208DF80000022009
S315080008F08DF8010000208DF8020001208DF8030014
S31508000900684600F095FD0121014801F07CFB1FBDFA
S315080009100004004000F0805111B10349086001E06D
S315080009200249486070470000040402400000024083
S3150800093021B1026842F00102026004E002684FF643
S31508000940FE731A400260704701684FF6FE72114046
S3150800095001600021016041608160C1604B498842A5
S3150800096008D14A490839496841F00F01474A083A07
S3150800097051608AE045491431884208D1434908390B
S31508000980496841F0F001414A083A51607DE03F4923
S315080009902831884208D13D490839496841F47061CF
S315080009A03A4A083A516070E038493C31884208D1E1
S315080009B036490839496841F47041344A083A516061
S315080009C063E032495031884208D1304908394968CC
S315080009D041F470212D4A083A516056E02B4964319A
S315080009E0884208D129490839496841F47001274ADB
S315080009F0083A516049E025497831884208D12349A7
S31508000A000839496841F07061204A083A51603CE06B
S31508000A101F49884206D1011F096841F00F01021FCC
S31508000A20116032E01A491431884208D11849091F61
S31508000A30096841F0F001164A121F116025E01449B1
S31508000A402831884208D11249091F096841F47061A2
S31508000A500F4A121F116018E00D493C31884208D12F
S31508000A600B49091F096841F47041094A121F1160B0
S31508000A700BE007495031884207D10549091F096823
S31508000A8041F47021024A121F1160704708000240A3
S31508000A900804024001460020002201F0805313B1E9
S31508000AA0054B1A6801E0054B1A6802EA01030BB107
S31508000AB0012000E0002070470004024000000240C8
S31508000AC01AB103680B43036002E003688B430360B3
S31508000AD0704710B50022026847F6F0739A430C6A0D
S31508000AE08B6823430C6923434C6923438C6923434E
S31508000AF0CC6923434C6A23438C6A23431A43026016
S31508000B00CB6843600B6883604B68C36010BD416067
S31508000B107047704700B5034603E04FF47A7000F05B
S31508000B2005F8181EA3F10103F7D100BD00EBC001BB
S31508000B30C9004FF0E0225161002191610521116140
S31508000B4000BF4FF0E021096901F480310029F8D08F
S31508000B5004214FF0E02211617047000000B58DB006
S31508000B600121084600F0D2FE1948FFF7EDFE1948A4
S31508000B70029019480068039000200490022005900E
S31508000B8000200690802007900020089009900A907F
S31508000B904FF400500B9000200C9002A90C48FFF768
S31508000BA098FF012202210A48FFF78AFF0F208DF8D5
S31508000BB0040001208DF8070002208DF805000020AA
S31508000BC08DF8060001A800F033FC0DB000BD00004A
S31508000BD05800024010580040380000202DE9F04126
S31508000BE000F034F8064616480088341AB4F5005F53
S31508000BF002DDA4F5804404E014F5005F01DA04F58B
S31508000C00804410480068001B0E4908600C4806809E
S31508000C100D4806800868C11700EB11410914A0EBBE
S31508000C200145002D01DA05F580354FF4616068430A
S31508000C304FF6FF7101EA104738B2BDE8F0810000AF
S31508000C402400002028000020460000201CB50020B3
S31508000C50019000906A4601A9032000F017FB10B91D
S31508000C60074800881CBD9DF800009DF8041040EA5E
S31508000C700120C0F30D04024804802046F2E7000074
S31508000C80440000200148B0F90000704734000020F5
S31508000C9010B586B00121082000F058FE012188050C
S31508000CA000F044FE1C208DF8170003208DF816006E
S31508000CB08002ADF8140005A9274800F007F90020BE
S31508000CC0ADF808004BF6FF70ADF80A000020ADF845
S31508000CD00C004FF48060ADF80E000001ADF810006E
S31508000CE01E48019001A91E4800F006FA01211C4879
S31508000CF000F0A8F900201B4908601B4908801B4919
S31508000D0008601B4908601B4908601B4908801B4985
S31508000D1008801B4908701B49087000F037F8FFF770
S31508000D201DFF6420FFF7F6FEFFF790FF0446142028
S31508000D30FFF7F0FEFFF78AFF04461420FFF7EAFEE6
S31508000D40FFF784FF0446084804800F4804800748D4
S31508000D50046006B010BD0000000C0140801A0600B1
S31508000D600058004020000020240000202800002011
S31508000D702C00002030000020340000204000002015
S31508000D804200002036000020440000201FB5012143
S31508000D90042000F0CBFD0020ADF80A00ADF80600EF
S31508000DA041F61F40ADF804006320ADF808000020A6
S31508000DB08DF80C0001A90E4801F05AFA01221146D5
S31508000DC00B4801F03DF91E208DF8000001208DF832
S31508000DD0030003208DF8010000208DF80200684604
S31508000DE000F026FB0121024801F00DF91FBD0000A5
S31508000DF0000800402DE9F0471448046814480068C4
S31508000E00A4EB0009B9F1640F01D2BDE8F0871148D7
S31508000E10006811490968A0EB010A4FEA0940C3179F
S31508000E2005464EF660208AFB007001462A4638467B
S31508000E30FFF7CAF900B2094908800648006806495A
S31508000E4008600348046000BFDFE7000020000020B8
S31508000E5030000020280000202C000020340000204C
S31508000E6000200249086002490860704760000020B7
S31508000E706400002000B5FFF7F3FF0020044908606E
S31508000E80044908700449088001200449087000BD17
S31508000E9058000020500000205C000020530000206D
S31508000EA010B500200849087000214FF0804001F075
S31508000EB0D8F900214FF0804001F0D5F900214FF014
S31508000EC0804001F0D2F910BD530000202DE9F04111
S31508000ED0024600250026002000230024002791F85A
S31508000EE003C00CF00F0591F803C00CF0100CBCF110
S31508000EF0000F03D091F802C04CEA050591F800C02E
S31508000F00BCF1000F31D0146800202BE04FF0010C23
S31508000F100CFA00F3B1F800C00CEA03069E4220D191
S31508000F2083004FF00F0C0CFA03F7BC4305FA03FCD9
S31508000F304CEA040491F803C0BCF1280F06D14FF01F
S31508000F40010C0CFA00FCC2F814C00AE091F803C0C0
S31508000F50BCF1480F05D14FF0010C0CFA00FCC2F8A1
S31508000F6010C0401C0828D1D31460B1F800C0BCF1E9
S31508000F70FF0F34DD546800202EE000F1080C4FF016
S31508000F80010808FA0CF3B1F800C00CEA03069E4201
S31508000F9021D183004FF00F0C0CFA03F7BC4305FA76
S31508000FA003FC4CEA040491F803C0BCF1280F05D1F0
S31508000FB000F1080C08FA0CF8C2F8148091F803C07E
S31508000FC0BCF1480F07D100F1080C4FF0010808FAE8
S31508000FD00CF8C2F81080401C0828CED35460BDE82F
S31508000FE0F0810246002093680B400BB1012000E017
S31508000FF0002070470AB1016100E04161704700BFF7
S31508001000FEE721B1028842F48062028004E0028889
S315080010104FF6FF331A400280704770B50246002427
S31508001020002500230020958A138B1B0445EA030636
S3150800103026F07F4404EA01068E4201D1012000E031
S31508001040002070BD21B1028842F00102028004E04E
S3150800105002884FF6FE731A400280704721B18288D3
S3150800106042F40062828004E082884FF2FF731A40DD
S315080010708280704721B1828842F48052828004E0DF
S3150800108082884EF6FF731A408280704721B1028823
S3150800109042F48072028004E002884FF6FF631A4029
S315080010A00280704721B1028842F40072028004E08F
S315080010B002884FF6FF531A40028070470CB5024665
S315080010C0002000230193009300920B0F019321F057
S315080010D07F41019B1BB1009B1433009303E0090C6D
S315080010E0009B18330093009B1B680B400BB1012033
S315080010F000E000200CBD00002DE9F04385B0044651
S315080011000D460026B1460427DFF8CC80A6884FF6A0
S31508001110C0700640684600F039FCDDF808802F48A4
S31508001120B8FBF0F01FFA80F946EA0906A68020887F
S315080011304FF6FE7108402080002629492868884213
S315080011400CD828684000B8FBF0F087B2042F00DA04
S3150800115004273E4309F10100208427E0E8884BF67E
S31508001160FF71884206D1286800EB4000B8FBF0F012
S3150800117087B209E0286800EBC00101EB0010B8FB54
S31508001180F0F087B247F48047C7F30B0008B947F079
S31508001190010747F4004006434FF4967009FB00F038
S315080011A04FF47A7190FBF1F0401C2084A6832088C6
S315080011B040F00100208026884FF6F5300640A888C2
S315080011C06989084306432680A88929890843208116
S315080011D005B0BDE8F083000000127A0040420F0017
S315080011E0A08601000146088AC0B2704712B141F0D4
S315080011F0010102E04FF6FE73194001827047018231
S31508001200704721B1028842F40042028003E0028856
S31508001210C2F30E020280704708B50121082000F0CB
S3150800122095FB28208DF803004FF40050ADF8000018
S3150800123003208DF8020069460148FFF747FE08BDFE
S31508001240000C014010B54FF400510E48FFF7C9FED7
S3150800125004460D48007870B9012C0CD11420FFF70C
S3150800126059FC61030748FFF7BCFE0446012C06D16A
S315080012700549087010BD14B90020034908700020FC
S31508001280F8E70000000C01407E0000202DE9FF4130
S3150800129005460E46174600220121880700F0D0FEB3
S315080012A042F2107400E0641E4FF400315A48FFF70A
S315080012B005FF08B1002CF6D15CBB01215648FFF7A3
S315080012C0A0FF00215448FFF79CFF0020ADF804005A
S315080012D04BF6FF70ADF806000020ADF808004FF495
S315080012E08060ADF80A000001ADF80C004B4800908C
S315080012F069464948FFF700FF01214748FFF7A2FE64
S3150800130001221146900700F09BFE002004B0BDE8BC
S31508001310F08101214048FFF7B9FE42F2107400E05F
S31508001320641E3F493C48FFF778FE08B9002CF7D100
S3150800133000220C213848FFF759FF42F2107400E0EA
S31508001340641E38493448FFF768FE08B9002CF7D1FF
S3150800135029463148FFF753FF42F2107400E0641E35
S315080013603049891C2C48FFF758FE08B9002CF6D1DD
S3150800137001212948FFF78AFE42F2107400E0641E34
S3150800138027492548FFF749FE08B9002CF7D101225D
S315080013900C212148FFF72AFF42F2107400E0641E70
S315080013A01F49491C1C48FFF738FE08B9002CF6D11E
S315080013B042F2107400E0641E19493F311648FFF7DF
S315080013C02CFE08B9002CF6D11348FFF70BFF307036
S315080013D000211148FFF715FE42F2107400E0641E62
S315080013E00F493F310C48FFF718FE08B9002CF6D113
S315080013F00948FFF7F7FE387001210748FFF752FE44
S3150800140001210548FFF7FDFD01221146900700F06E
S3150800141017FE01207AE7000000580040801A0600EF
S31508001420010003008200070000BFFEE770470000C6
S3150800143070B5002100230F22C47804B3154C246824
S3150800144004F4E064C4F5E064210AC1F10403CA4067
S31508001450447804FA03F184781440214309010E4CB8
S315080014600678A155047804F01F050124AC400578D8
S315080014706D11AD0005F1E025C5F8004109E00478D5
S3150800148004F01F050124AC40044D0678761145F892
S31508001490264070BD0CED00E000E400E080E100E0CD
S315080014A002490143024A1160704700000000FA052C
S315080014B00CED00E070B500240EE00021204600F097
S315080014C0F4F8002504E0002000F080F9681CC5B295
S315080014D0802DF8DB601CC4B2082CEEDB70BD000062
S315080014E008B50121082000F031FA14208DF8030010
S315080014F003208DF802004FF48070ADF800006946AD
S315080015000A48FFF7E3FC4FF40070ADF8000069469F
S315080015100648FFF7DBFC012211020448FFF76AFDC3
S31508001520012251020148FFF765FD08BD000C014084
S3150800153070B50546002419E080202041284008B1EE
S31508001540012000E0002002464FF400710E48FFF724
S3150800155051FD012211020C48FFF74CFD00224FF401
S3150800156080710948FFF746FD601CC4B2082CE3DB0E
S31508001570012211020448FFF73DFD00224FF4807155
S315080015800148FFF737FD70BD000C014010B5012278
S3150800159051020A48FFF72EFD012211020748FFF7FC
S315080015A029FD00224FF400710448FFF723FD0022AD
S315080015B04FF480710148FFF71DFD10BD000C014076
S315080015C010B500224FF400710648FFF713FD0122FB
S315080015D011020448FFF70EFD012251020148FFF7E8
S315080015E009FD10BD000C014070B5002406E0002579
S315080015F000E06D1CB5F57A7FFBD3641CB4F57A7FE1
S31508001600F5D3FFF76DFFAE2000F0D0F8D52000F037
S31508001610CDF8802000F0CAF8A82000F0C7F83F20CF
S3150800162000F0C4F8D32000F0C1F8002000F0BEF89E
S31508001630402000F0BBF8A12000F0B8F8C82000F060
S31508001640B5F8DA2000F0B2F8122000F0AFF88120E1
S3150800165000F0ACF8CF2000F0A9F8D92000F0A6F8E1
S31508001660F12000F0A3F8DB2000F0A0F8302000F00D
S315080016709DF8A42000F09AF8A62000F097F88D208F
S3150800168000F094F8142000F091F8AF2000F08EF8DE
S31508001690FFF710FF70BD10B50246012000E0504369
S315080016A00B1EA1F10101FAD110BD70B505460C4615
S315080016B045F0B00000F07AF8102141EA141000F065
S315080016C075F804F00F0000F071F870BD2DE9F041CF
S315080016D005460E461746721ED206110E6A1E520699
S315080016E0100EFFF7E2FF002409E0A7F12001134AD4
S315080016F002EB0111085D00F069F8601CC4B2082C01
S31508001700F3DB721ED206110E6A1E012303EB420298
S31508001710D0B2FFF7CAFF00240BE0A7F12001074A61
S3150800172002EB011204F10801505C00F04FF8601C4E
S31508001730C4B2082CF1DBBDE8F08100000E290008D0
S315080017402DE9F04780460E4617461D46002415E04B
S31508001750281B411E0A20FFF79EFFB7FBF0F00A215F
S31508001760B0FBF1F201FB120000F130093019C1B2E9
S315080017704A464046FFF7AAFF601CC4B2AC42E7DB04
S31508001780BDE8F0872DE9F04107460E4615460024C8
S3150800179007E02A5D3019C1B23846FFF797FF601C8B
S315080017A0C4B2285D0028F4D1BDE8F08110B504461E
S315080017B0FFF7ECFE7820FFF7BBFE0020FFF7B8FE28
S315080017C02046FFF7B5FEFFF7FBFE10BD10B5044631
S315080017D0FFF7DCFE7820FFF7ABFE4020FFF7A8FEF8
S315080017E02046FFF7A5FEFFF7EBFE10BD08B5012161
S315080017F0084600F09BF800F02FF84FF0804000F004
S315080018005FF84FF0804000F03DF800214FF080402F
S3150800181000F027FD00214FF0804000F024FD002154
S315080018204FF0804000F021FD01221146900700F09C
S3150800183007FC1C208DF8000000208DF801008DF8AB
S31508001840020001208DF803006846FFF7F1FD01212B
S31508001850880700F0D8FB08BD08B50121042000F070
S3150800186075F818208DF8030003208DF8020007206C
S31508001870ADF8000069460248FFF728FB08BD0000DE
S31508001880000801401FB50446684600F0D7FC6020F2
S31508001890ADF800000020ADF808000120ADF8020000
S315080018A00020ADF806006946204600F0D9FB6946D7
S315080018B0204600F021FC6946204600F06FFC1FBD5B
S315080018C03EB50446204600F0C4FB0020ADF80600ED
S315080018D02020ADF8020040F20770ADF804000020A1
S315080018E0ADF800008DF808006946204600F0C0FCF7
S315080018F03EBD704701460020034A506820F4404028
S3150800190008435060704700000010024029B1064A9B
S3150800191052690243044B5A6104E0034A52698243FE
S31508001920014B5A61704700000010024029B1064A6F
S31508001930D2690243044BDA6104E0034AD26982435E
S31508001940014BDA61704700000010024029B1064ACF
S3150800195092690243044B9A6104E0034A92698243FE
S31508001960014B9A61704700000010024029B1064AEF
S31508001970D2680243044BDA6004E0034AD268824321
S31508001980014BDA60704700000010024030B50021B4
S315080019900022002400232D4D6D6805F00C0121B1AD
S315080019A0042905D0082923D105E0294D056022E040
S315080019B0274D05601FE0254D6D6805F47012234D0F
S315080019C06D6805F48034022505EB92421CB9214D59
S315080019D0554305600BE01D4D6D6805F400351DB1D6
S315080019E01C4D5543056002E0194D5543056002E05C
S315080019F0174D056000BF00BF144D6D6805F0F00176
S31508001A000909154D6B5C0568DD4045600F4D6D682D
S31508001A1005F4E061090A104D6B5C4568DD40856098
S31508001A200A4D6D6805F46051C90A0B4D6B5C456833
S31508001A30DD40C560054D6D6805F44041890B074DCD
S31508001A406B5CC568B5FBF3F5056130BD0010024057
S31508001A5000127A0000093D00000000201000002056
S31508001A607047704710B500F001F810BD0CB500209E
S31508001A70019000903348006840F48030314908608E
S31508001A8000BF3048006800F4003000900198401C00
S31508001A900190009818B90198B0F5A06FF1D12948BE
S31508001AA0006800F4003010B10120009001E0002029
S31508001AB000900098012843D12348006840F01000A0
S31508001AC0214908600846006820F0030008600846B7
S31508001AD0006840F0020008601A48406819494860E2
S31508001AE00846406848600846406840F48060486098
S31508001AF00846406820F47C1048600846406840F470
S31508001B00E81048600846006840F08070086000BF2A
S31508001B100C48006800F000700028F9D009484068B1
S31508001B2020F00300074948600846406840F0020074
S31508001B30486000BF0348406800F00C000828F9D147
S31508001B400CBD000000100240002002407047000053
S31508001B5010B51348006840F00100114908600846AE
S31508001B604068104908400E494860084600680E4912
S31508001B7008400B4908600846006820F48020086081
S31508001B800846406820F4FE0048604FF41F0088604D
S31508001B90FFF768FF4FF000600449086010BD0000B9
S31508001BA0001002400000FFF8FFFFF6FE08ED00E017
S31508001BB02DE9F04F8FB00121880700F030FA01288F
S31508001BC07ED10121800700F01BFABE48007880F01C
S31508001BD00100BC4908700846007810B10FB0BDE88E
S31508001BE0F08FB94908880021FEF76EFD05B2B6499F
S31508001BF048880121FEF768FD06B2B34988880221A4
S31508001C00FEF762FD07B2B1480078022803D1A9465B
S31508001C10B246BB4638E0AE48007858B92802AD4906
S31508001C2008603002AC4908603802AC4908600120F7
S31508001C30A7490870A7480068A5EB2020A5490968A8
S31508001C400844A4490860A4480068A6EB2020A249D5
S31508001C5009680844A0490860A0480068A7EB202046
S31508001C609E49096808449D4908609A480068001218
S31508001C700FFA80F99848006800120FFA80FA0846A9
S31508001C80006800120FFA80FB9548A0F80090954866
S31508001C90A0F800A09448A0F800B08C48007880B955
S31508001CA000214FF0804000F0DCFA00214FF0804020
S31508001CB000F0D9FA00214FF0804000F0D6FA8DE7FF
S31508001CC0FEE08248007801283FD10DA80EAB00221D
S31508001CD01146009040F6B83000F052FB0AA80BAB4C
S31508001CE00CAA0090BDF93410BDF9380000F09EFD2D
S31508001CF0BDF830104FF0804000F0B3FABDF82C1054
S31508001D004FF0804000F0AFFABDF828104FF0804041
S31508001D1000F0ABFA75480068401C7449086008462C
S31508001D20006844F6206188420ED300207049088076
S31508001D30FFF796F840F6B8306E49088001206E49DC
S31508001D40087003206149087048E76048007802284F
S31508001D502BD1674800883730654908800DA80EAB37
S31508001D6000900846028841F29411002000F008FB12
S31508001D700AA80BAB0CAA0090BDF93410BDF93800BF
S31508001D8000F054FDBDF830104FF0804000F069FABD
S31508001D90BDF82C104FF0804000F065FABDF8281009
S31508001DA04FF0804000F061FA18E7484800780328A9
S31508001DB07DD152480078401C504908700846007882
S31508001DC0042806DB0020087049480088373048494F
S31508001DD008804748048840F6B838204600F0BCFA20
S31508001DE000FB08F0C0130E90A4F5AA41553988B235
S31508001DF000F0B2FA00FB08F0C0130D90A4F52A41D2
S31508001E00AB3988B200F0A8FA00FB08F0C0130C90B2
S31508001E100AA80BAB0090DDE90C210E9800F087FAB2
S31508001E2008A809AB22460090BDF92810BDF92C0078
S31508001E3000F05EFCBDF82410494208B200F082FCAE
S31508001E4007902C490988BDF82020891A08B200F0A5
S31508001E50B3FC069046F266625142079800F05CFAB7
S31508001E60079046F266625142069800F055FA0690C7
S31508001E7004A805AB22460090DDE9061000F080FABA
S31508001E8001A802AB03AA0090BDF91010BDF9140011
S31508001E9000F0CCFCBDF80C104FF0804000F0E1F9E2
S31508001EA0BDF808104FF0804000F0DDF900E006E0CC
S31508001EB0BDF804104FF0804000F0D7F900BF00BF0E
S31508001EC000BF8BE66D0000201400002053000020A0
S31508001ED07C0000207000002074000020780000209C
S31508001EE0480000204A0000204C000020580000202E
S31508001EF05E0000205C000020500000207D000020CD
S31508001F0010B501212D4800F08AF8012855D12C4832
S31508001F10007878B92B48008800012B4908602948C1
S31508001F2040880001486027488088000188600120B1
S31508001F30234908702348008823490968A0EB211023
S31508001F40214909680844204908601E4840884968AC
S31508001F50A0EB21101C49496808441B4948601948E8
S31508001F6080888968A0EB21101749896808441649B2
S31508001F70886008460068C0F30F10124908801248A6
S31508001F804068C0F30F1048800F488068C0F30F10F0
S31508001F908880FFF766FD0D480088401C0B490880BD
S31508001FA008460088642804DB0020088001200849C8
S31508001FB008700121014800F023F810BD0004004014
S31508001FC06C0000201400002080000020680000201B
S31508001FD05100002010B50121074800F020F801281B
S31508001FE008D106480068401C0449086001210248D7
S31508001FF000F006F810BD0000000800402000002090
S31508002000CA430282704721B1028842F00102028067
S3150800201004E002884FF6FE731A400280704730B516
S315080020200246002000230024158A05EA0103958943
S3150800203005EA010413B10CB1012000E0002030BD0F
S315080020401AB183890B43838102E083898B43838199
S31508002050704701894FF6F8721140018170470000F8
S3150800206070B5002400220023058C4FF6FE76354015
S315080020700584028C8388048B4FF68F752C40B51E19
S315080020802C400D882C43751E2A400D892A434D88FD
S315080020902A43144DA8420BD0134DA84208D0134D1D
S315080020A0A84205D0124DA84202D0124DA84213D11B
S315080020B04FF6F7752A404D892A434FF6FB752A4095
S315080020C08D882A434FF6FF652B404FF6FF552B4068
S315080020D08D892B43CD892B4383800483CD888586C0
S315080020E0028470BD002C01400034014000400140CC
S315080020F0004401400048014070B500240022002336
S31508002100058C4FF6EF7635400584028C8388048B60
S3150800211048F6FF752C404FF6FF452C400D884FF6C4
S31508002120FF7606EA05252C434FF6DF752A400D890A
S3150800213006EA05152A434D8806EA05152A43154D6C
S31508002140A84202D0144DA8421DD14FF67F752A40E9
S315080021504D894FF6FF7606EA05152A434FF6BF75F1
S315080021602A408D8806EA05152A434FF6FF352B4087
S315080021704FF2FF752B408D8906EA85052B43CD89DD
S3150800218006EA85052B4383800483CD880587028468
S3150800219070BD0000002C01400034014070B50024D9
S315080021A000220023058C4FF6FF6635400584028C15
S315080021B08388848B4FF68F752C404FF6FC752C4020
S315080021C00D882C434FF6FF552A400D894FF6FF76AA
S315080021D006EA05252A434D8806EA05252A43154DAC
S315080021E0A84202D0144DA8421DD14FF2FF752A40CD
S315080021F04D894FF6FF7606EA05252A434FF6FF3541
S315080022002A408D8806EA05252A434EF6FF752B4097
S315080022104DF6FF752B408D8906EA05152B43CD89AA
S3150800222006EA05152B4383808483CD888587028437
S3150800223070BD0000002C01400034014000210180DF
S3150800224041808180C180018141818181C18170473E
S3150800225082884FF68F731A40828082880A4382806A
S3150800226070478186704701877047818770470000ED
S31508002270002202881D4B98420ED01D4B98420BD067
S31508002280B0F1804F08D01B4B984205D01A4B9842A4
S3150800229002D01A4B984204D14FF68F731A404B88D6
S315080022A01A43174B984207D0164B984204D04FF65C
S315080022B0FF431A40CB881A4302808B8883850B8894
S315080022C003850A4B98420BD0094B984208D00E4B0F
S315080022D0984205D00D4B984202D00D4B984201D139
S315080022E00B7A03860123838270470000002C014085
S315080022F0003401400004004000080040000C004083
S315080023000010004000140040004001400044014015
S315080023100048014000BFFEE703468B4201DA084643
S315080023207047934201DD1046FAE718B2F8E770B530
S315080023301546049C188000EB410244F6E7165643FE
S31508002340F61336B2268070BD10B5044604F58041F2
S3150800235088B200F001F810BD70B501460A12CCB279
S31508002360064830F91230501CC0B2044E36F91050E7
S31508002370E81A604303EB202000B270BDFE2E000869
S315080023802DE9F84F04460D4616461F46DDF828A0E7
S315080023903046FFF7D9FF80463046FFF7DDFF814616
S315080023A004FB08F0C11305FB09F0A1EBE03B04FBB5
S315080023B009F0C11305FB08F001EBE03000900FFAB5
S315080023C08BF03880009800B2AAF80000BDE8F88FB4
S315080023D01FB54FF4A060FFF763F8FFF705F9FFF79D
S315080023E069F885A201210846FFF7CCF94FF4FA707F
S315080023F0FEF790FBFFF7FAF984A201210220FFF706
S31508002400C1F94FF4FA70FEF785FB85A20121032076
S31508002410FFF7B8F9FEF7A6F986A201210320FFF710
S31508002420B1F94FF4FA70FEF775FB87A20121042073
S31508002430FFF7A8F9FEF72CFC88A201210420FFF774
S31508002440A1F94FF4FA70FEF765FBFFF733F888A297
S3150800245001210846FFF796F9FEF74EF989A20121F0
S315080024600846FFF78FF98CA201210220FFF78AF9A7
S315080024708EA201210320FFF785F991A201210420EC
S31508002480FFF780F9FEF7C8FE012211469148FFF7CB
S31508002490D7FD6420FEF73EFBACE0FEF7D3FE38B16D
S315080024A08D48007810B9FEF7E5FC01E0FEF7F8FC68
S315080024B0FEF794FB0546AEB288480680FEF79AFCFE
S315080024C087480078002876D0002085490870834818
S315080024D000880A2190FBF1F01FFA80FBFEF7D2FB79
S315080024E00446002C01DA2D2000E02B200390002C56
S315080024F001DA604200E0204687B203235A460521E6
S315080025000120FFF71DF909210120039AFFF7DEF8DC
S3150800251004233A460B210120FFF712F97148B0F956
S315080025200000002801DA2D2000E02B2002906D48DB
S31508002530B0F90000002804DA6A48B0F90000404201
S3150800254002E06848B0F900001FFA80F8042102206A
S31508002550029AFFF7BBF80523424619460220FFF701
S31508002560EFF86148B0F90000002801DA2D2000E0F4
S315080025702B2001905C48B0F90000002804DA5A487C
S31508002580B0F90000404202E05748B0F900001FFACF
S3150800259080F904210320019AFFF798F805234A4693
S315080025A019460320FFF7CCF85048B0F90000002878
S315080025B002DA2D2001E01CE02B2000904B48B0F9F0
S315080025C00000002804DA4948B0F90000404202E059
S315080025D04648B0F900001FFA80FA04210846009A16
S315080025E0FFF774F80523524619460420FFF7A8F8A2
S315080025F000BF00BF51E700005374657020313A20D0
S315080026004F4C4544204F4B20000000005374657022
S3150800261020323A2050574D204F4B20200000000012
S315080026205374657020333A204144432E2E2E2020C1
S31508002630000000005374657020333A20414443205B
S315080026404F4B2020000000005374657020343A2058
S31508002650454E432E2E2E2020000000005374657030
S3150800266020343A20454E43204F4B202000000000DE
S3150800267043616C6962726174696E672E2E2E202022
S3150800268000000000416E673A2020205370643A200B
S31508002690202020200000000049613A202020202028
S315080026A020202020206D41200000000049623A20A9
S315080026B02020202020202020206D4120000000001E
S315080026C049633A202020202020202020206D412008
S315080026D00000000000040040530000204E000020C7
S315080026E051000020480000204A0000204C0000202D
S315080026F02DE9F84F04460D4616461F46DDF828A074
S315080027003046FFF721FE80463046FFF725FE814614
S3150800271004FB08F0C11305FB09F001EBE03B04FBE1
S3150800272009F0C013414205FB08F001EBE0300090C8
S315080027300FFA8BF03880009800B2AAF80000BDE8BE
S31508002740F88F00002DE9F041044647F6FF75184852
S31508002750007888B9C82060431649096801EBE0305B
S31508002760144908602A46684201B212480068FFF711
S31508002770D3FD1049086002E000200E49086040F6C3
S31508002780CD4060430B49096801EBE0362A466842AA
S3150800279001B23046FFF7C0FD0746BE4201D0012010
S315080027A000E00020024908703846BDE8F0810000C4
S315080027B06A000020600000202DE9F041044647F633
S315080027C0FF751848007888B9C82060431649096813
S315080027D001EBE030144908602A46684201B2124803
S315080027E00068FFF799FD1049086002E000200E49CD
S315080027F0086040F6CD4060430B49096801EBE036B6
S315080028002A46684201B23046FFF786FD0746BE42B1
S3150800281001D0012000E00020024908703846BDE8D2
S31508002820F08100006B000020640000202DE9FF4FB6
S3150800283081B0044620464FEA640ACAF1000B46F600
S31508002840DA6EDDF808A00AFB0EFA0BEBEA334FEA5C
S31508002850640ACAF1000BDDF808A00AFB0EFAABEB16
S31508002860EA3500900098834200DD0093DDF800A069
S31508002870554500DD009506463046834200DA1E4679
S31508002880B54200DA2E46DDF800A0B244CAF1000AC5
S315080028904FEA6A0840444344454440F283310A46B5
S315080028A000FB02FA01EBEA3703FB02FA01EBEA3C0A
S315080028B005FB02FA01EBEA39002F00DA0027BCF122
S315080028C0000F01DA4FF0000CB9F1000F01DA4FF0F2
S315080028D00009B7F5E16F01D340F20777BCF5E16F60
S315080028E001D340F2077CB9F5E16F01D340F20779CD
S315080028F0DDF80CA0AAF80070DDF810A0AAF800C050
S31508002900DDF838A0AAF8009005B0BDE8F08F000001
S3150800291000000000000000000000000000000000A9
S3150800292000F800000000000000333000000000102E
S315080029300C06100C0600000000000000000040C055
S315080029407840C0784000043F04043F040400007047
S3150800295088FC08300000001820FF211E0000F0083F
S31508002960F000E018000000211C031E211E0000F0E4
S315080029700888700000001E2123241927211010162C
S315080029800E0000000000000000000000000000002B
S3150800299000E01804020000000007182040000002AA
S315080029A00418E0000000004020180700000040401E
S315080029B080F0804040000202010F01020200000080
S315080029C000F0000000000101011F010101000000E4
S315080029D000000000000080B0700000000000000049
S315080029E000000000000000010101010101010000D2
S315080029F00000000000000030300000000000000069
S31508002A00000080601804006018060100000000E05D
S31508002A1010080810E000000F102020100F0000100A
S31508002A2010F8000000000020203F20200000007061
S31508002A300808088870000030282422213000003059
S31508002A400888884830000018202020110E00000051
S31508002A50C02010F8000000070424243F240000F8D2
S31508002A600888880808000019212020110E0000E0B7
S31508002A70108888180000000F112020110E00003859
S31508002A800808C83808000000003F00000000007071
S31508002A90880808887000001C222121221C0000E0FA
S31508002AA010080810E0000000312222110F00000073
S31508002AB000C0C00000000000003030000000000028
S31508002AC00080000000000000806000000000000098
S31508002AD08040201008000001020408102000404031
S31508002AE04040404040000404040404040400000874
S31508002AF01020408000000020100804020100007029
S31508002B0048080808F0000000003036010000C03010
S31508002B10C828E810E0000718272423140B00000033
S31508002B20C038E0000000203C23020227382008F8BD
S31508002B30888888700000203F202020110E00C030B1
S31508002B40080808083800071820202010080008F888
S31508002B5008080810E000203F202020100F0008F881
S31508002B608888E8081000203F20202320180008F84D
S31508002B708888E8081000203F200003000000C030C5
S31508002B8008080838000007182020221E020008F846
S31508002B9008000008F808203F210101213F2000080D
S31508002BA008F8080800000020203F20200000000048
S31508002BB00808F8080800C08080807F00000008F830
S31508002BC088C028180800203F20012638200008F869
S31508002BD0080000000000203F20202020300008F8D0
S31508002BE0F800F8F80800203F003F003F200008F8EA
S31508002BF030C00008F808203F200007183F00E01002
S31508002C0008080810E0000F10202020100F0008F810
S31508002C1008080808F000203F210101010000E01023
S31508002C2008080810E0000F18242438504F0008F848
S31508002C30888888887000203F2000030C30200070A8
S31508002C408808080838000038202121221C001808A6
S31508002C5008F8080818000000203F2000000008F8BF
S31508002C6008000008F808001F202020201F00087808
S31508002C70880000C83808000007380E010000F80868
S31508002C8000F80008F800033C0700073C0300081892
S31508002C9068808068180820302C03032C30200838F8
S31508002CA0C800C83808000000203F200000001008AF
S31508002CB00808C838080020382621202018000000F7
S31508002CC000FE020202000000007F40404000000CA7
S31508002CD030C000000000000000010638C0000002F5
S31508002CE00202FE000000004040407F000000000095
S31508002CF004020202040000000000000000000000B8
S31508002D0000000000000080808080808080800002B3
S31508002D10020400000000000000000000000000009F
S31508002D208080808000000019242222223F2008F893
S31508002D30008080000000003F112020110E000000D6
S31508002D40008080800000000E112020201100000065
S31508002D5000808088F800000E112020103F20000017
S31508002D60808080800000001F22222222130000801B
S31508002D7080F0888888180020203F20200000000066
S31508002D80808080808000006B94949493600008F89B
S31508002D90008080800000203F210000203F20008026
S31508002DA09898000000000020203F20200000000026
S31508002DB000809898000000C08080807F000008F896
S31508002DC0000080808000203F24022D30200000086B
S31508002DD008F8000000000020203F20200000808026
S31508002DE0808080808000203F20003F20003F808038
S31508002DF0008080800000203F210000203F20000046
S31508002E00808080800000001F202020201F008080F6
S31508002E1000808000000080FFA12020110E00000025
S31508002E20008080808000000E112020A0FF80808016
S31508002E3080008080800020203F21200001000000C3
S31508002E408080808080000033242424241900008098
S31508002E5080E0808000000000001F202000008080A5
S31508002E60000000808000001F202020103F20808066
S31508002E7080000080808000010E30080601008080F6
S31508002E800080008080800F300C030C300F0000801B
S31508002E908000808080000020312E0E312000808046
S31508002EA080000080808080818E7018060100008076
S31508002EB08080808080000021302C22213000000094
S31508002EC00000807C020200000000003F4040000035
S31508002ED00000FF00000000000000FF0000000002E4
S31508002EE0027C800000000040403F00000000000611
S31508002EF001010202040400000000000000000000B6
S31508002F00240348066A098C0CAB0FC812E215F91897
S31508002F100B1C1A1F2322282526281F2B112EFB30AF
S31508002F20DF33BA368C39563C173FCE417A441C47B4
S31508002F30B4493F4CBF4E33519B53F5554258825ABC
S31508002F40B35CD75EEB60F162E864CF66A6686D6A2B
S31508002F50236CC96D5E6FE2705472B5730475417661
S31508002F606B77847889797C7A5C7B297CE37C897D9C
S31508002F701D7E9C7E097F617FA67FD87FF57FFF7FB8
S31508002F80F57FD87FA67F617F097F9C7E1D7E897D20
S31508002F90E37C297C5C7B7C7A897984786B774176BB
S31508002FA00475B5735472E2705E6FC96D236C6D6AF1
S31508002FB0A668CF66E864F162EB60D75EB35C825AB6
S31508002FC04258F5559B533351BF4E3F4CB4491C47A5
S31508002FD07A44CE41173F563C8C39BA36DF33FB303C
S31508002FE0112E1F2B2628282523221A1F0B1CF918F9
S31508002FF0E215C812AB0F8C0C6A09480624030000B8
S31508003000DCFCB8F996F674F355F038ED1EEA07E7D6
S31508003010F5E3E6E0DDDDD8DADAD7E1D4EFD105CF9E
S3150800302021CC46C974C6AAC3E9C032BE86BBE4B879
S315080030304CB6C1B341B1CDAE65AC0BAABEA77EA551
S315080030404DA329A1159F0F9D189B31995A979395C2
S31508003050DD933792A2901E8FAC8D4B8CFC8ABF896C
S3150800306095887C8777868485A484D7831D83778211
S31508003070E3816481F7809F805A8028800B800180D5
S315080030800B8028805A809F80F7806481E38177824D
S315080030901D83D783A484848577867C879588BF8992
S315080030A0FC8A4B8CAC8D1E8FA2903792DD9393953C
S315080030B05A973199189B0F9D159F29A14DA37EA557
S315080030C0BEA70BAA65ACCDAE41B1C1B34CB6E4B848
S315080030D086BB32BEE9C0AAC374C646C921CC05CF91
S315080030E0EFD1E1D4DAD7D8DADDDDE6E0F5E307E7B4
S315080030F01EEA38ED55F074F396F6B8F9DCFC0000D4
S315080031002031000800000020800000002801000887
S31508003110A031000880000020F006000044010008E5
S31508003120000000000102030401020304060708095F
S315080031300204060800000000000000080008000855
S315080031400000000000000000000000000000000071
S3150800315000000000000000008C00002000000000B5
S315080031600000000000000000000000000000000051
S315080031700000000001000000000000000000000040
S315080031800000000000000000000000000000000031
S315080031900000000000000000000000000000000021
S705080000ED05
