S31508000000800700208901000891140008930F000852
S315080000108D1400085B05000859220008000000003E
S315080000200000000000000000000000003D1B000862
S31508000030BB0A000800000000CF190008291C0008A8
S31508000040A3010008A3010008A3010008A3010008F2
S31508000050A3010008A3010008A3010008A3010008E2
S31508000060A3010008A3010008A3010008A3010008D2
S31508000070A3010008A3010008A30100086105000800
S31508000080A3010008A3010008A3010008A3010008B2
S31508000090A3010008A3010008A3010008A3010008A2
S315080000A0A3010008A3010008A3010008A301000892
S315080000B08D1C0008A3010008FD1E0008A301000806
S315080000C0A3010008A3010008A3010008A301000872
S315080000D0A3010008A3010008A3010008A301000862
S315080000E0A3010008A3010008A301000800F002F814
S315080000F000F03AF80AA090E8000C82448344AAF17A
S315080001000107DA4501D100F02FF8AFF2090EBAE877
S315080001100F0013F0010F18BFFB1A43F0010318472D
S31508000120142E0000342E0000103A24BF78C878C177
S31508000130FAD8520724BF30C830C144BF04680C60DF
S31508000140704700000023002400250026103A28BF27
S3150800015078C1FBD8520728BF30C148BF0B6070472B
S315080001601FB51FBD10B510BD00F0CCF81146FFF73E
S31508000170F7FF02F0E1F800F0EAF803B4FFF7F2FF40
S3150800018003BC00F0F1F80000094880470948004719
S31508000190FEE7FEE7FEE7FEE7FEE7FEE7FEE7FEE729
S315080001A0FEE7FEE704480549054A064B7047000086
S315080001B02D1C0008ED0000088001002080070020A3
S315080001C0800300208003002010B54C1084EA5304F5
S315080001D004D54042C1F1000138BF491E1B4204D56F
S315080001E05242C3F1000338BF5B1E00F014F814F046
S315080001F0804F04D04042C1F1000138BF491E14F0B7
S31508000200004F04D05242C3F1000338BF5B1E10BD35
S3150800021070477047704753EA020C00F069802DE971
S31508000220F04B4FF00006002B1FBFB3FA83F503FA15
S3150800023005F424FA05F65E4012BF1643B2FA82F5B3
S3150800024002FA05F4C5F120051EBF22FA05FC44EAA8
S315080002500C04203556EA044C4FEA144418BF641CB3
S315080002604FF000084FF00009904271EB030C39D3A8
S31508000270002919BFB1FA81F701FA07F6B0FA80F733
S3150800028000FA07F6C7F120071EBF20FA07FC46EA60
S315080002900C062037B6FBF4FCA7EB0507103F07F062
S315080002A01F0BCBF120060CFA0BFB2CFA06F644BF03
S315080002B0B3460026202FA4BF5E464FF0000B5BEA2C
S315080002C0060C08BF4FF0010B19EB0B09ABFB027CC0
S315080002D048EB0608C01B06FB02CC0BFB03CC71EBF4
S315080002E00C01C1E70B46024641464846BDE8F08B7D
S315080002F013B54FF000004FF00001AFF30080BDE8E2
S315080003001C407047754600F02BF8AE460500694656
S31508000310534620F00700854618B020B5FFF742FF80
S31508000320BDE820404FF000064FF000074FF00008E8
S315080003304FF0000B21F00701AC46ACE8C009ACE869
S31508000340C009ACE8C009ACE8C0098D46704710B5CD
S315080003500446AFF300802046BDE81040FFF70DBF06
S31508000360004870472001002001491820ABBEFEE76F
S3150800037026000200704721B1826842F001028260BD
S3150800038003E0826822F001028260704721B1826828
S3150800039042F48072826003E0826822F4807282608E
S315080003A07047000010B504461248844208D101215E
S315080003B0401501F049FB0021601501F045FB17E0E7
S315080003C00D48844208D10121001501F03DFB0021AA
S315080003D0201501F039FB0BE00848844208D10121B9
S315080003E0C80301F031FB00214FF4004001F02CFB5B
S315080003F010BD00000024014000280140003C0140D7
S31508000400014600208A6802F004020AB1012000E0D1
S3150800041000207047014600208A6802F008020AB1E7
S31508000420012000E00020704730B502460020002376
S3150800043050680F4C20400D790C6844EA0524204387
S31508000440506090680B4C2040D1E902542C434D79FA
S3150800045044EA450420439060D06A20F470000C7C7E
S31508000460641EE4B2234340EA0350D06230BD000064
S31508000470FFFEF0FFFDF7F1FFF0B504460D4600203C
S315080004800021092D11DDE068A5F10A0606EB4607ED
S31508000490072606FA07F18843A5F10A0606EB46067B
S315080004A003FA06F10843E0600CE0206905EB45070E
S315080004B0072606FA07F1884305EB450603FA06F10F
S315080004C008432061072A0FDA606B561E06EB86077B
S315080004D01F2606FA07F18843561E06EB860605FA16
S315080004E006F10843606322E00D2A0FDA206BD61F57
S315080004F006EB86071F2606FA07F18843D61F06EB82
S31508000500860605FA06F10843206310E0E06AA2F1C0
S315080005100D0606EB86071F2606FA07F18843A2F1A1
S315080005200D0606EB860605FA06F10843E062F0BDFD
S31508000530816841F008018160704721B1826842F400
S31508000540A002826003E0826822F4A00282607047FB
S31508000550816841F004018160704700BFFEE7000032
S3150800056010B54FF4003000F069FA00286FD04FF448
S31508000570003000F0A3F95248007860B900215148CC
S3150800058000F0AAF90021504800F08BFD01214E48E1
S3150800059000F0ABFD10BD01214B4800F0A6FD00217F
S315080005A0484800F099F90021474800F07AFD474885
S315080005B00088401C4549088008460088202813DB27
S315080005C00120434908704348006843490860414888
S315080005D000684249884201D1414800E03F483D4908
S315080005E008600020394908800221364800F063FA7D
S315080005F0364800883749096801EB400031495839BF
S3150800060048660121304800F064FD4FF47A7400E032
S31508000610641E34492C4800F023FD08B9002CF7D194
S3150800062000220C21284800F003FE4FF47A7400E0FB
S31508000630641E2D49244800F013FD08B9002CF7D193
S315080006400321214800F0FDFD4FF47A7401E035E0FE
S31508000650641E2549891C1C4800F002FD08B9002CB7
S31508000660F6D10121184800F034FD4FF47A7400E001
S31508000670641E1C49144800F0F3FC08B9002CF7D195
S3150800068001220C21104800F0D3FD4FF47A7400E0E3
S31508000690641E1449491C0C4800F0E2FC08B9002CF9
S315080006A0F6D10121084800F008FD0121064800F0AE
S315080006B0F8FC0121034800F00FF900BF00BF69E705
S315080006C03E00002058000240005800404800002024
S315080006D04A0000204000002044000020A00000201E
S315080006E0E0000020010003008200070030B5024642
S315080006F0064830F81130D01A04B240F6E440604398
S3150800070040F2F62590FBF5F030BD00001A000020F7
S315080007103EB50020009001900290002417E00121C8
S315080007201348FFF70AFF012000F0C8F911490988A4
S315080007300098084400900F49498801980844019098
S315080007400C498988029808440290601C84B2802C5F
S31508000750E5DB0098C0F3CF10074908800198C0F37D
S31508000760CF1048800298C0F3CF1088803EBD0000A5
S3150800077000240140140000201A00002000B591B0A2
S315080007800121480201F050F90121042001F04CF939
S315080007900121084601F028F94FF4004001F018F944
S315080007A000208DF84300E020ADF8400003208DF8C6
S315080007B0420010A93D4800F04FFB3D4800F098F86C
S315080007C003200890002007900F9020200D90C0016C
S315080007D00E90384806904FF480600C9080200A905E
S315080007E03548059080150B900020099005A93048DA
S315080007F000F043F901212E4800F06EF82E484C38D7
S31508000800FFF7D0FD0020009001208DF804008DF838
S3150800081005004FF4602002900020039003208DF815
S315080008201000694624484C38FFF7FEFD06230122CE
S31508000830052121484C38FFF71FFE062302221946D8
S315080008401D484C38FFF718FE0623032207211A48CD
S315080008504C38FFF711FE012117484C38FFF796FD73
S31508000860012115484C38FFF786FD13484C38FFF729
S315080008705FFE00BF10484C38FFF7CCFD0128F9D0C1
S315080008800D484C38FFF764FE00BF0B484C38FFF79D
S31508000890B7FD0128F9D0012107484C38FFF74DFE6E
S315080008A0C82000F00BF911B000BD00000008014097
S315080008B008000240140000204C24014000F080513A
S315080008C011B10349086001E0024948607047000019
S315080008D0040402400000024021B1026842F001020D
S315080008E0026004E002684FF6FE731A400260704721
S315080008F001684FF6FE7211400160002101604160F7
S315080009008160C1604B49884208D14A49083949681B
S3150800091041F00F01474A083A51608AE045491431C7
S31508000920884208D143490839496841F0F001414AEB
S31508000930083A51607DE03F492831884208D13D494F
S315080009400839496841F470613A4A083A516070E0DA
S3150800095038493C31884208D136490839496841F452
S315080009607041344A083A516063E03249503188424E
S3150800097008D130490839496841F470212D4A083AA6
S31508000980516056E02B496431884208D12949083913
S31508000990496841F47001274A083A516049E02549F7
S315080009A07831884208D123490839496841F070618D
S315080009B0204A083A51603CE01F49884206D1011F87
S315080009C0096841F00F01021F116032E01A4914311B
S315080009D0884208D11849091F096841F0F001164AEA
S315080009E0121F116025E014492831884208D112499E
S315080009F0091F096841F470610F4A121F116018E057
S31508000A000D493C31884208D10B49091F096841F450
S31508000A107041094A121F11600BE00749503188429C
S31508000A2007D10549091F096841F47021024A121FB6
S31508000A301160704708000240080402400146002081
S31508000A40002201F0805313B1054B1A6801E0054BEB
S31508000A501A6802EA01030BB1012000E00020704782
S31508000A6000040240000002401AB103680B43036009
S31508000A7002E003688B430360704710B500220268E2
S31508000A8047F6F0739A430C6A8B6823430C69234331
S31508000A904C6923438C692343CC6923434C6A23431B
S31508000AA08C6A23431A430260CB6843600B688360F1
S31508000AB04B68C36010BD41607047704700B5034678
S31508000AC003E04FF47A7000F005F8181EA3F101034D
S31508000AD0F7D100BD00EBC001C9004FF0E02251611B
S31508000AE0002191610521116100BF4FF0E0210969DC
S31508000AF001F480310029F8D004214FF0E022116179
S31508000B00704700002DE9F84F2A48D0F800A000F0F9
S31508000B1061F8814628480088A9EB0004B4F5005F0F
S31508000B2007DDA4F5804425480068401E234908606F
S31508000B3009E014F5005F06DA04F580441F480068EA
S31508000B40401C1E4908601E480068001B1C490860B6
S31508000B501948A0F80090484600F00EF919480078A0
S31508000B6030BB19480068AAEB000BBBF1000F1ED07A
S31508000B701348006815490968401A00904FEA8B30F7
S31508000B80C31705464EF66021009880FB01700146A2
S31508000B902A463846FFF718FB00B20D490880084870
S31508000BA000680A4908600848C0F800A000BF00BFEE
S31508000BB0BDE8F88F280000202C00002058000020EF
S31508000BC0300000203E0000203800002034000020BD
S31508000BD03C0000201CB50020019000906A4601A93F
S31508000BE0032000F08BFB10B9064800881CBD9DF851
S31508000BF0040080019DF8001040EAA1040148048021
S31508000C002046F3E74C00002010B586B001210820E5
S31508000C1000F00AFF0121880500F0F6FE1C208DF879
S31508000C20170003208DF816008002ADF8140005A9F8
S31508000C30284800F011F90020ADF808004BF6FF70BF
S31508000C40ADF80A000020ADF80C004FF48060ADF84E
S31508000C500E000001ADF810001F48019001A91F48B9
S31508000C6000F06CFA01211D4800F00FFA00201C491B
S31508000C7008601C4908801C4908601C4908601C4912
S31508000C8008601C4908801C4908801C4908701C49D2
S31508000C9008701C4908601C49086000F039F864208F
S31508000CA0FFF70CFFFFF796FF04461420FFF706FF31
S31508000CB0FFF790FF04461420FFF700FFFFF78AFFAF
S31508000CC0044608480480114804800748046006B0B2
S31508000CD010BD0000000C0140A0860100005800402D
S31508000CE0280000202C0000203000002034000020BE
S31508000CF0380000203C000020480000204A00002060
S31508000D003E0000206C000020700000204C000020EF
S31508000D101FB50121042000F077FE0020ADF80A0077
S31508000D20ADF8060041F61F40ADF804006320ADF8A3
S31508000D30080000208DF80C0001A90E4801F03AFAC7
S31508000D40012211460B4801F01EF91E208DF80000FD
S31508000D5001208DF8030003208DF8010000208DF88E
S31508000D600200684600F096FB0121024801F0DFF810
S31508000D701FBD0000000800402DE9F0410446134855
S31508000D80007810B11248008808B925B203E0104867
S31508000D900088201A05B2C5EBC5060E48007800B1D2
S31508000DA07642B7B20C48078000220121880701F075
S31508000DB0EAF80A4804800848008809490880012298
S31508000DC01146900701F0DFF8BDE8F0815D000020CC
S31508000DD0640000205E000020520000204E00002023
S31508000DE05000002000200249086002490860704748
S31508000DF0780000207C00002000B5FFF7F3FF0020F4
S31508000E000549086005490880054908800120054903
S31508000E1008700549087000BD6000002064000020C5
S31508000E20680000205D0000205C00002010B500204E
S31508000E300849087000214FF0804001F0B4F90021FC
S31508000E404FF0804001F0B1F900214FF0804001F0E9
S31508000E50AEF910BD5D0000202DE9F04102460025DF
S31508000E600026002000230024002791F803C00CF078
S31508000E700F0591F803C00CF0100CBCF1000F03D05D
S31508000E8091F802C04CEA050591F800C0BCF1000FC4
S31508000E9031D0146800202BE04FF0010C0CFA00F357
S31508000EA0B1F800C00CEA03069E4220D183004FF039
S31508000EB00F0C0CFA03F7BC4305FA03FC4CEA0404CE
S31508000EC091F803C0BCF1280F06D14FF0010C0CFABB
S31508000ED000FCC2F814C00AE091F803C0BCF1480F40
S31508000EE005D14FF0010C0CFA00FCC2F810C0401CEA
S31508000EF00828D1D31460B1F800C0BCF1FF0F34DD67
S31508000F00546800202EE000F1080C4FF0010808FA9A
S31508000F100CF3B1F800C00CEA03069E4221D1830007
S31508000F204FF00F0C0CFA03F7BC4305FA03FC4CEA26
S31508000F30040491F803C0BCF1280F05D100F1080C90
S31508000F4008FA0CF8C2F8148091F803C0BCF1480FEF
S31508000F5007D100F1080C4FF0010808FA0CF8C2F89E
S31508000F601080401C0828CED35460BDE8F0810246A4
S31508000F70002093680B400BB1012000E00020704769
S31508000F8041617047016170470AB1016100E0416142
S31508000F90704700BFFEE7000038B50021284800F07A
S31508000FA074F814208DF8030003208DF802008002DF
S31508000FB0ADF8000069462348FFF74EFF4FF440613D
S31508000FC02048FFF7DFFF0120FFF778FD002411E036
S31508000FD04FF480611B48FFF7D5FF0120FFF76EFD30
S31508000FE04FF480611748FFF7CBFF0120FFF766FD36
S31508000FF0601CC4B2092CEBDB4FF400611148FFF703
S31508001000BFFF0120FFF75AFD4FF480610D48FFF737
S31508001010B9FF0120FFF752FD4FF400610948FFF7B9
S31508001020B1FF0120FFF74AFD1C208DF803004FF49D
S315080010304060ADF8000069460248FFF70DFF38BD6D
S3150800104000580040000C014021B1028842F4806239
S31508001050028004E002884FF6FF331A400280704788
S3150800106070B502460024002500230020958A138BBC
S315080010701B0445EA030626F07F4404EA01068E426D
S3150800108001D1012000E0002070BD21B1028842F0A4
S315080010900102028004E002884FF6FE731A400280BD
S315080010A0704721B1828842F40062828004E0828817
S315080010B04FF2FF731A408280704721B1828842F44A
S315080010C08052828004E082884EF6FF731A4082803E
S315080010D0704721B1028842F48072028004E00288D7
S315080010E04FF6FF631A400280704721B1028842F426
S315080010F00072028004E002884FF6FF531A4002800D
S3150800110070470CB502460020002301930093009215
S315080011100B0F019321F07F41019B1BB1009B1433F8
S31508001120009303E0090C009B18330093009B1B688F
S315080011300B400BB1012000E000200CBD2DE9F04367
S3150800114085B004460D460026B1460427DFF8CC8054
S31508001150A6884FF6C0700640684600F085FCDDF8A4
S3150800116008802F48B8FBF0F01FFA80F946EA09060E
S31508001170A68020884FF6FE7108402080002629495F
S31508001180286888420CD828684000B8FBF0F087B277
S31508001190042F00DA04273E4309F10100208427E0E2
S315080011A0E8884BF6FF71884206D1286800EB4000B4
S315080011B0B8FBF0F087B209E0286800EBC00101EB44
S315080011C00010B8FBF0F087B247F48047C7F30B006E
S315080011D008B947F0010747F4004006434FF49670F4
S315080011E009FB00F04FF47A7190FBF1F0401C208463
S315080011F0A683208840F00100208026884FF6F53027
S315080012000640A8886989084306432680A88929894B
S315080012100843208105B0BDE8F083000000127A007B
S3150800122040420F00A08601000146088AC0B27047F6
S3150800123012B141F0010102E04FF6FE731940018236
S3150800124070470182704721B1028842F40042028049
S3150800125003E00288C2F30E020280704708B5012136
S31508001260082000F0E1FB28208DF803004FF4C04069
S31508001270ADF8000003208DF8020069460148FFF723
S31508001280EBFD08BD000C014070B50646B6F5005FDB
S3150800129001D1114C06E0B6F5804F01D10F4C01E0A3
S315080012A0002070BD31460E48FFF761FE05462078DE
S315080012B068B9012D0BD11420FFF700FC3146084808
S315080012C0FFF755FE0546012D04D12070E9E70DB953
S315080012D0002020700020E4E79E0000209F000020E8
S315080012E0000C014010B54FF40050FFF7CDFF10BDBC
S315080012F010B54FF48040FFF7C7FF10BD2DE9FF4139
S3150800130005460E4617464FF4FA6400E0641E4FF48D
S3150800131000315948FFF7F5FE08B1002CF6D16CBB31
S3150800132056480068401C55490860FFF735FE0121FC
S315080013305148FFF788FF00214F48FFF784FF002038
S31508001340ADF804004BF6FF70ADF806000020ADF8C6
S3150800135008004FF48060ADF80A000001ADF80C00F3
S315080013604748009069464448FFF7E8FE012142488D
S31508001370FFF78BFE002004B0BDE8F08101213E484E
S31508001380FFF7A7FE4FF4FA6400E0641E3D493A48A9
S31508001390FFF766FE08B9002CF7D100220C21364863
S315080013A0FFF746FF4FF4FA6400E0641E36493248F8
S315080013B0FFF756FE08B9002CF7D129462E48FFF745
S315080013C040FF4FF4FA6400E0641E2F49891C2A483E
S315080013D0FFF746FE08B9002CF6D101212648FFF78B
S315080013E078FE4FF4FA6400E0641E26492248FFF7A7
S315080013F037FE08B9002CF7D101220C211E48FFF749
S3150800140017FF4FF4FA6400E0641E1E49491C1A4887
S31508001410FFF726FE08B9002CF6D14FF4FA6400E06F
S31508001420641E18493F311448FFF71AFE08B9002C04
S31508001430F6D11148FFF7F8FE307000210E48FFF785
S3150800144003FE4FF4FA6400E0641E0E493F310A4871
S31508001450FFF706FE08B9002CF6D10748FFF7E4FEA9
S31508001460387001210448FFF740FE01210248FFF7C2
S31508001470EBFD01207FE70000005800406C000020CB
S31508001480A0860100010003008200070000BFFEE7F6
S315080014907047000070B5002100230F22C47804B3FA
S315080014A0154C246804F4E064C4F5E064210AC1F12B
S315080014B00403CA40447804FA03F1847814402143AB
S315080014C009010E4C0678A155047804F01F0501247D
S315080014D0AC4005786D11AD0005F1E025C5F8004171
S315080014E009E0047804F01F050124AC40044D067891
S315080014F0761145F8264070BD0CED00E000E400E0EA
S3150800150080E100E002490143024A11607047000089
S315080015100000FA050CED00E070B500240EE000218D
S31508001520204600F0F4F8002504E0002000F0B3F9A6
S31508001530681CC5B2802DF8DB601CC4B2082CEEDB33
S3150800154070BD000008B50121082000F06DFA1420CE
S315080015508DF8030003208DF802004FF48070ADF873
S31508001560000069460A48FFF777FC4FF40070ADF8AB
S31508001570000069460648FFF76FFC0122110204487D
S31508001580FFF702FD012251020148FFF7FDFC08BDE5
S31508001590000C014070B50546002419E08020204162
S315080015A0284008B1012000E0002002464FF40071EF
S315080015B00E48FFF7E9FC012211020C48FFF7E4FC8C
S315080015C000224FF480710948FFF7DEFC601CC4B2A4
S315080015D0082CE3DB012211020448FFF7D5FC0022A0
S315080015E04FF480710148FFF7CFFC70BD000C014035
S315080015F010B5012251020A48FFF7C6FC0122110262
S315080016000748FFF7C1FC00224FF400710448FFF7B2
S31508001610BBFC00224FF480710148FFF7B5FC10BDF2
S31508001620000C014010B500224FF400710648FFF780
S31508001630ABFC012211020448FFF7A6FC0122510265
S315080016400148FFF7A1FC10BD000C014070B500244D
S3150800165006E0002500E06D1CB5F57A7FFBD3641C17
S31508001660B4F57A7FF5D3FFF76DFFAE2000F003F9E6
S31508001670D52000F000F9802000F0FDF8A82000F041
S31508001680FAF83F2000F0F7F8D32000F0F4F800202D
S3150800169000F0F1F8402000F0EEF8A12000F0EBF899
S315080016A0C82000F0E8F8DA2000F0E5F8122000F08B
S315080016B0E2F8812000F0DFF8CF2000F0DCF8D9202E
S315080016C000F0D9F8F12000F0D6F8DB2000F0D3F8C6
S315080016D0302000F0D0F8A42000F0CDF8A62000F0C5
S315080016E0CAF88D2000F0C7F8142000F0C4F8AF201F
S315080016F000F0C1F8FFF710FF70BD10B502460120D3
S3150800170000E050430B1EA1F10101FAD110BD70B5DE
S3150800171005460C4645F0B00000F0ADF8102141EA48
S31508001720141000F0A8F804F00F0000F0A4F870BD3B
S315080017302DE9F04105460E461746721ED206110ED1
S315080017406A1E5206100EFFF7E2FF002409E0A7F111
S315080017502001134A02EB0111085D00F09CF8601C99
S31508001760C4B2082CF3DB721ED206110E6A1E0123C0
S3150800177003EB4202D0B2FFF7CAFF00240BE0A7F141
S315080017802001074A02EB011204F10801505C00F03F
S3150800179082F8601CC4B2082CF1DBBDE8F0810000B9
S315080017A0422700082DE9F04780460E4617461D4693
S315080017B0002415E0281B411E0A20FFF79EFFB7FBF1
S315080017C0F0F00A21B0FBF1F201FB120000F130093A
S315080017D03019C1B24A464046FFF7AAFF601CC4B298
S315080017E0AC42E7DBBDE8F0872DE9F047814688463D
S315080017F015461E46002D06DB2B2241464846FFF7B6
S3150800180097FF2F4605E02D2241464846FFF790FFF1
S315080018106F42002417E0301B411E0A20FFF76DFFB8
S31508001820B7FBF0F00A21B0FBF1F201FB120000F160
S31508001830300A08EB0400401CC1B252464846FFF77E
S3150800184077FF601CC4B2B442E5DBBDE8F0872DE93A
S31508001850F04107460E461546002407E02A5D301972
S31508001860C1B23846FFF764FF601CC4B2285D002881
S31508001870F4D1BDE8F08110B50446FFF7B9FE78202B
S31508001880FFF788FE0020FFF785FE2046FFF782FE59
S31508001890FFF7C8FE10BD10B50446FFF7A9FE78206D
S315080018A0FFF778FE4020FFF775FE2046FFF772FE29
S315080018B0FFF7B8FE10BD08B50121084600F0A4F8E8
S315080018C000F038F84FF0804000F068F84FF080409C
S315080018D000F046F800214FF0804000F064FC00213B
S315080018E04FF0804000F061FC00214FF0804000F08E
S315080018F05EFC01221146900700F045FB70214FF06F
S31508001900804000F047FC0121880700F01CFB1C20E2
S315080019108DF8000000208DF801008DF802000120E6
S315080019208DF803006846FFF7B5FD0121880700F02A
S31508001930FEFA08BD08B50121042000F075F8182044
S315080019408DF8030003208DF802000720ADF800008B
S3150800195069460248FFF780FA08BD00000008014002
S315080019601FB50446684600F00BFC6020ADF8000081
S315080019700020ADF808000120ADF802000020ADF8FF
S3150800198006006946204600F00DFB6946204600F031
S3150800199055FB6946204600F0A3FB1FBD3EB504462D
S315080019A0204600F0F9FA0020ADF806002020ADF830
S315080019B0020040F20770ADF804000020ADF8000000
S315080019C08DF808006946204600F0F4FB3EBD7047D6
S315080019D001460020034A506820F4404008435060FE
S315080019E0704700000010024029B1064A52690243B6
S315080019F0044B5A6104E0034A52698243014B5A6117
S31508001A00704700000010024029B1064AD269024315
S31508001A10044BDA6104E0034AD2698243014BDA6176
S31508001A20704700000010024029B1064A9269024335
S31508001A30044B9A6104E0034A92698243014B9A6116
S31508001A40704700000010024029B1064AD2680243D6
S31508001A50044BDA6004E0034AD2688243014BDA6039
S31508001A60704700000010024030B500210022002413
S31508001A7000232D4D6D6805F00C0121B1042905D010
S31508001A80082923D105E0294D056022E0274D056088
S31508001A901FE0254D6D6805F47012234D6D6805F439
S31508001AA08034022505EB92421CB9214D5543056049
S31508001AB00BE01D4D6D6805F400351DB11C4D5543F1
S31508001AC0056002E0194D5543056002E0174D0560B3
S31508001AD000BF00BF144D6D6805F0F0010909154DEA
S31508001AE06B5C0568DD4045600F4D6D6805F4E06187
S31508001AF0090A104D6B5C4568DD4085600A4D6D68C6
S31508001B0005F46051C90A0B4D6B5C4568DD40C5603C
S31508001B10054D6D6805F44041890B074D6B5CC5683A
S31508001B20B5FBF3F5056130BD0010024000127A00DE
S31508001B3000093D000000002010000020704710B585
S31508001B4000F002F810BD00000CB5002001900090CE
S31508001B503348006840F480303149086000BF304897
S31508001B60006800F4003000900198401C019000982D
S31508001B7018B90198B0F5A06FF1D12948006800F4AA
S31508001B80003010B10120009001E00020009000987C
S31508001B90012843D12348006840F010002149086015
S31508001BA00846006820F0030008600846006840F010
S31508001BB0020008601A4840681949486008464068A3
S31508001BC048600846406840F48060486008464068B7
S31508001BD020F47C1048600846406840F4E8104860E5
S31508001BE00846006840F08070086000BF0C4800682E
S31508001BF000F000700028F9D00948406820F003007A
S31508001C00074948600846406840F00200486000BF3F
S31508001C100348406800F00C000828F9D10CBD000004
S31508001C2000100240002002407047000010B513481B
S31508001C30006840F0010011490860084640681049EC
S31508001C4008400E494860084600680E4908400B4996
S31508001C5008600846006820F4802008600846406846
S31508001C6020F4FE0048604FF41F008860FFF767FF06
S31508001C704FF000600449086010BD000000100240E3
S31508001C800000FFF8FFFFF6FE08ED00E02DE9F04F33
S31508001C908FB00121880700F047F98648007810B10F
S31508001CA08548007888B900214FF0804000F07BFA1B
S31508001CB000214FF0804000F078FA00214FF0804074
S31508001CC000F075FA0FB0BDE8F08F7B480078012860
S31508001CD001D100240DE07948007800B907E078487A
S31508001CE00088401C764908800846048801E0754843
S31508001CF004887548048000200EE0744931F81010F5
S31508001D00734A32F8102002EB42021144C1F38F01E4
S31508001D106F4A22F81010401C0328EEDB6C4908882D
S31508001D200021FEF7E3FC4542694948880121FEF790
S31508001D30DDFC4642664988880221FEF7D7FC474201
S31508001D40644805606448066064480760C5EBC530AA
S31508001D5040F2DC5190FBF1F00FFA80F8C6EBC63082
S31508001D6090FBF1F00FFA80F9C7EBC73090FBF1F062
S31508001D700FFA80FA0DA80EAB524649460090404627
S31508001D8000F077FA0BA80CAB22460090BDF9341088
S31508001D90BDF9380000F0D0FBBDF930005049088085
S31508001DA0BDF92C004F4908804FF0000B00200A901F
S31508001DB041480078012837D14B480068401C4A49F9
S31508001DC0086042F6E06B00200A900846006843F275
S31508001DD0B061884221D344480068B0F57A5F1CD8C0
S31508001DE04248006842490988084440490860414811
S31508001DF00088401C3F4908803B480068B0F57A5F78
S31508001E000BD13A4800680988B0FBF1F03A490880D6
S31508001E100020364908603749088000200B90BDF934
S31508001E202C00304908801EE02348007803281AD180
S31508001E304FF47A70049044F620600390BDF8301091
S31508001E400498401A00B20290BDF82C100398401A64
S31508001E5000B20190029800F0A9FB8346019800F0B1
S31508001E60CFFB0A9000BF08A809AB22460090584647
S31508001E700A9900F029FA05A806AB07AA0090BDF949
S31508001E802010BDF9240000F0E5FBBDF81C104FF04A
S31508001E90804000F088F9BDF818104FF0804000F037
S31508001EA084F9BDF814104FF0804000F080F900BFA7
S31508001EB008E700005C0000205D00002066000020A6
S31508001EC06800002050000020800000201400002038
S31508001ED020000020880000208C00002090000020B0
S31508001EE08200002084000020600000209800002066
S31508001EF04E0000209C0000206400002010B501213F
S31508001F00074800F02FF8012808D106480068401C49
S31508001F10044908600121024800F006F810BD0000D7
S31508001F200008004028000020CA430282704721B1F9
S31508001F30028842F00102028004E002884FF6FE732E
S31508001F401A400280704731B1B0F8442042F400428A
S31508001F50A0F8442005E0B0F84420C2F30E02A0F829
S31508001F604420704730B50246002000230024158A15
S31508001F7005EA0103958905EA010413B10CB10120AC
S31508001F8000E0002030BD1AB183890B43838102E04B
S31508001F9083898B438381704701894FF6F872114014
S31508001FA00181704770B5002400220023058C4FF686
S31508001FB0FE7635400584028C8388048B4FF68F7530
S31508001FC02C40B51E2C400D882C43751E2A400D89C1
S31508001FD02A434D882A43144DA8420BD0134DA842D4
S31508001FE008D0134DA84205D0124DA84202D0124D72
S31508001FF0A84213D14FF6F7752A404D892A434FF662
S31508002000FB752A408D882A434FF6FF652B404FF60D
S31508002010FF552B408D892B43CD892B438380048321
S31508002020CD888586028470BD002C014000340140AD
S3150800203000400140004401400048014070B50024BA
S3150800204000220023058C4FF6EF7635400584028C76
S315080020508388048B48F6FF752C404FF6FF452C40C5
S315080020600D884FF6FF7606EA05252C434FF6DF75F1
S315080020702A400D8906EA05152A434D8806EA0515FC
S315080020802A43154DA84202D0144DA8421DD14FF639
S315080020907F752A404D894FF6FF7606EA05152A43CD
S315080020A04FF6BF752A408D8806EA05152A434FF66E
S315080020B0FF352B404FF2FF752B408D8906EA8505C3
S315080020C02B43CD8906EA85052B4383800483CD8877
S315080020D00587028470BD0000002C014000340140D1
S315080020E070B5002400220023058C4FF6FF663540A4
S315080020F00584028C8388848B4FF68F752C404FF6A7
S31508002100FC752C400D882C434FF6FF552A400D8947
S315080021104FF6FF7606EA05252A434D8806EA052581
S315080021202A43154DA84202D0144DA8421DD14FF29C
S31508002130FF752A404D894FF6FF7606EA05252A439C
S315080021404FF6FF352A408D8806EA05252A434EF6BE
S31508002150FF752B404DF6FF752B408D8906EA051550
S315080021602B43CD8906EA05152B4383808483CD88C6
S315080021708587028470BD0000002C014000340140B0
S315080021800021018041808180C18001814181818156
S31508002190C181704782884FF68F731A408280828881
S315080021A00A43828070478186704701877047818716
S315080021B070470000002202881D4B98420ED01D4B26
S315080021C098420BD0B0F1804F08D01B4B984205D0EF
S315080021D01A4B984202D01A4B984204D14FF68F7385
S315080021E01A404B881A43174B984207D0164B984209
S315080021F004D04FF6FF431A40CB881A4302808B88D7
S3150800220083850B8803850A4B98420BD0094B984265
S3150800221008D00E4B984205D00D4B984202D00D4B74
S31508002220984201D10B7A0386012383827047000006
S31508002230002C014000340140000400400008004022
S31508002240000C00400010004000140040004001400F
S31508002250004401400048014000BFFEE703468B42A8
S3150800226001DA08467047934201DD1046FAE718B2CC
S31508002270F8E7F0B51646059C188040F35002574219
S315080022807D1A49F2CE376F43FF133FB22780F0BD60
S3150800229010B5044604F5804188B200F001F810BD77
S315080022A070B501460A12CCB2064830F91230501CF5
S315080022B0C0B2044E36F91050E81A604303EB2020EA
S315080022C000B270BD322D00082DE9F05F04460D46B8
S315080022D0904699464046FFF7DBFF82464046FFF7A1
S315080022E0DFFF834604FB0AF0C11305FB0BF0A1EBE5
S315080022F0E03604FB0BF0C11305FB0AF001EBE037EF
S31508002300B6F5004F01DB47F6FF7616F5004F00DA03
S31508002310084EB7F5004F01DB47F6FF7717F5004F74
S3150800232000DA044F30B2A9F8000039B20A980180E1
S31508002330BDE8F09F0080FFFF4FF4A060FFF7E2F8CA
S31508002340FFF7B9FA4FF4FA70FEF7B8FBFEF716FA7C
S315080023504FF4FA70FEF7B2FBFEF756FC4FF4FA702C
S31508002360FEF7ACFB00214FF08040FFF7ECFD0021A3
S315080023704FF08040FFF7DBFD6420FEF79FFBFEF77A
S31508002380C7F901218807FFF7D2FD01218807FFF762
S31508002390DAFDFEF763FFFFF759F900214F48FEF70C
S315080023A080FE00214E48FEF797FA002202214C488B
S315080023B0FEF75AFB4FF40030FEF780FA0121474832
S315080023C0FEF793FE002047490870474908704749B9
S315080023D00880012046490870FEF70EFD6420FEF7C6
S315080023E06DFB79E0FEF78EFB42A201210846FFF756
S315080023F02EFA05234148028807210120FFF7D2F962
S315080024003FA201210220FFF722FA3F48007828B1AF
S315080024103EA207210220FFF71AFA04E03DA207218F
S315080024200220FFF714FA3DA201210320FFF70FFA55
S3150800243006233B48B0F9002004210320FFF7D4F90E
S3150800244038A201210420FFF702FA06233648B0F91C
S31508002450002004210846FFF7C7F9FEF743FF30B30B
S315080024603248007828B9012021490870FEF7C4FCD3
S3150800247019E02E480078012809D12D4800882D49F1
S315080024800880FEF7AFFC0320284908700BE02748B0
S315080024900078032807D1002015490870FEF7C6FC06
S315080024A00020224908704FF4FA70FEF707FBFEF782
S315080024B01FFF70B11D48007858B91348007808B94D
S315080024C0012000E00020104908704FF4FA70FEF76A
S315080024D0F5FA6420FEF7F2FA84E700000058004097
S315080024E0580002403E0000204A0000204800002014
S315080024F05C00002054686574613A00008000002082
S31508002500416E676C653A00006600002056495254D1
S3150800251055414C00454E434F4445520049643A00E4
S315080025208200002049713A00840000205D000020E6
S315080025304E000020640000202DE9F05F04460D4699
S31508002540904699464046FFF7A3FE82464046FFF767
S31508002550A7FE834604FB0AF0C11305FB0BF001EB4B
S31508002560E03604FB0BF0C013414205FB0AF001EB11
S31508002570E037B6F5004F01DB47F6FF7616F5004F54
S3150800258000DA094EB7F5004F01DB47F6FF7717F576
S31508002590004F00DA044F30B2A9F8000039B20A98A1
S315080025A00180BDE8F09F00000080FFFF2DE9F041A3
S315080025B0044646F266671048007830B9A0010F490C
S315080025C0096801EBE0300D49086020020B490968EB
S315080025D001EBE0353A46784201B22846FFF73EFE5F
S315080025E00646B54201D0012000E0002002490870E5
S315080025F03046BDE8F08100009400002078000020F5
S315080026002DE9F041044646F266671048007830B96D
S31508002610E0010F49096801EBE0300D4908606002E6
S315080026200B49096801EBE0353A46784201B228467B
S31508002630FFF714FE0646B54201D0012000E000204F
S31508002640024908703046BDE8F08100009500002078
S315080026507C0000202DE9FF4F82B005462A464FEA46
S31508002660650BCDF804B046F6DA6EDDF80CB00BFB58
S315080026700EFB4FEAEB3BCDF800B0DDF804B0CBF12A
S31508002680000EDDF800B00EEB0B03DDF804B0CBF15D
S31508002690000EDDF800B0AEEB0B049246534500DDA4
S315080026A09A46544500DDA24616463246934200DA5B
S315080026B01E46B44200DA26460AEB060BCBF1000B9F
S315080026C04FEA6B073A443B443C4440F283300146A8
S315080026D002FB01FB00EBEB3C03FB01FB00EBEB38D9
S315080026E004FB01FB00EBEB39BCF1000F01DA4FF0FC
S315080026F0000CB8F1000F01DA4FF00008B9F1000F2D
S3150800270001DA4FF00009BCF5E16F01D340F2077C0E
S31508002710B8F5E16F01D340F20778B9F5E16F01D357
S3150800272040F20779DDF810B0ABF800C0DDF814B058
S31508002730ABF80080DDF83CB0ABF8009006B0BDE819
S31508002740F08F0000000000000000000000000000FC
S315080027500000000000F80000000000000033300010
S31508002760000000100C06100C060000000000000017
S31508002770000040C07840C0784000043F04043F048D
S315080027800400007088FC08300000001820FF211E95
S315080027900000F008F000E018000000211C031E21CC
S315080027A01E0000F00888700000001E212324192747
S315080027B0211010160E0000000000000000000000A6
S315080027C00000000000E018040200000000071820BE
S315080027D0400000020418E00000000040201807002E
S315080027E00000404080F0804040000202010F0102D4
S315080027F00200000000F0000000000101011F0101B5
S315080028000100000000000000000080B07000000019
S3150800281000000000000000000000000101010101A5
S315080028200101000000000000000000303000000038
S31508002830000000000000806018040060180601000F
S31508002840000000E010080810E000000F102020101B
S315080028500F00001010F8000000000020203F202084
S31508002860000000700808088870000030282422211B
S3150800287030000030088888483000001820202011D1
S315080028800E000000C02010F8000000070424243FB2
S31508002890240000F80888880808000019212020115B
S315080028A00E0000E0108888180000000F1120201183
S315080028B00E0000380808C83808000000003F00006D
S315080028C000000070880808887000001C2221212258
S315080028D01C0000E010080810E00000003122221158
S315080028E00F00000000C0C0000000000000303000EB
S315080028F0000000000080000000000000806000006A
S3150800290000000000804020100800000102040810A2
S3150800291020004040404040404000040404040404B1
S31508002920040000081020408000000020100804025F
S315080029300100007048080808F00000000030360161
S315080029400000C030C828E810E00007182724231420
S315080029500B000000C038E0000000203C23020227DC
S31508002960382008F8888888700000203F2020201129
S315080029700E00C03008080808380007182020201064
S31508002980080008F808080810E000203F202020105A
S315080029900F0008F88888E8081000203F2020232028
S315080029A0180008F88888E8081000203F200003006F
S315080029B00000C03008080838000007182020221E2A
S315080029C0020008F808000008F808203F2101012144
S315080029D03F20000808F8080800000020203F2020B3
S315080029E0000000000808F8080800C08080807F0002
S315080029F0000008F888C028180800203F200126385B
S31508002A00200008F8080000000000203F20202020B1
S31508002A10300008F8F800F8F80800203F003F003FAB
S31508002A20200008F830C00008F808203F20000718E2
S31508002A303F00E01008080810E0000F1020202010C2
S31508002A400F0008F808080808F000203F21010101D6
S31508002A500000E01008080810E0000F182424385079
S31508002A604F0008F8888888887000203F2000030CEB
S31508002A7030200070880808083800003820212122F4
S31508002A801C00180808F8080818000000203F200055
S31508002A90000008F808000008F808001F2020202079
S31508002AA01F000878880000C83808000007380E019B
S31508002AB00000F80800F80008F800033C0700073C87
S31508002AC00300081868808068180820302C03032C37
S31508002AD030200838C800C83808000000203F200009
S31508002AE0000010080808C8380800203826212020C9
S31508002AF01800000000FE020202000000007F4040AD
S31508002B004000000C30C0000000000000000106383C
S31508002B10C00000020202FE000000004040407F00A4
S31508002B200000000004020202040000000000000089
S31508002B300000000000000000000080808080808087
S31508002B40808000020204000000000000000000006F
S31508002B5000000000808080800000001924222222C4
S31508002B603F2008F8008080000000003F1120201157
S31508002B700E000000008080800000000E112020203A
S31508002B801100000000808088F800000E1120201037
S31508002B903F200000808080800000001F2222222221
S31508002BA01300008080F0888888180020203F2020A5
S31508002BB000000000808080808000006B94949493CD
S31508002BC0600008F8008080800000203F2100002077
S31508002BD03F2000809898000000000020203F202019
S31508002BE00000000000809898000000C08080807F68
S31508002BF0000008F8000080808000203F24022D3065
S31508002C002000000808F8000000000020203F2020CF
S31508002C1000008080808080808000203F20003F2048
S31508002C20003F8080008080800000203F2100002037
S31508002C303F200000808080800000001F2020202088
S31508002C401F00808000808000000080FFA1202011E6
S31508002C500E000000008080808000000E112020A059
S31508002C60FF80808080008080800020203F21200017
S31508002C700100000080808080800000332424242402
S31508002C801900008080E0808000000000001F2020DE
S31508002C9000008080000000808000001F2020201097
S31508002CA03F20808080000080808000010E3008066A
S31508002CB0010080800080008080800F300C030C307B
S31508002CC00F0000808000808080000020312E0E31A9
S31508002CD02000808080000080808080818E701806A9
S31508002CE0010000808080808080000021302C222115
S31508002CF0300000000000807C020200000000003F57
S31508002D00404000000000FF00000000000000FF0037
S31508002D1000000002027C800000000040403F0000E6
S31508002D200000000601010202040400000000000081
S31508002D3000000000240348066A098C0CAB0FC81271
S31508002D40E215F9180B1C1A1F2322282526281F2BE3
S31508002D50112EFB30DF33BA368C39563C173FCE413D
S31508002D607A441C47B4493F4CBF4E33519B53F555E3
S31508002D704258825AB35CD75EEB60F162E864CF666C
S31508002D80A6686D6A236CC96D5E6FE2705472B5737E
S31508002D90047541766B77847889797C7A5C7B297CA3
S31508002DA0E37C897D1D7E9C7E097F617FA67FD87F17
S31508002DB0F57FFF7FF57FD87FA67F617F097F9C7EA1
S31508002DC01D7E897DE37C297C5C7B7C7A8979847885
S31508002DD06B7741760475B5735472E2705E6FC96D90
S31508002DE0236C6D6AA668CF66E864F162EB60D75E0D
S31508002DF0B35C825A4258F5559B533351BF4E3F4CEC
S31508002E00B4491C477A44CE41173F563C8C39BA36EA
S31508002E10DF33FB30112E1F2B2628282523221A1FC5
S31508002E200B1CF918E215C812AB0F8C0C6A09480678
S31508002E3024030000DCFCB8F996F674F355F038ED77
S31508002E401EEA07E7F5E3E6E0DDDDD8DADAD7E1D40E
S31508002E50EFD105CF21CC46C974C6AAC3E9C032BE94
S31508002E6086BBE4B84CB6C1B341B1CDAE65AC0BAACE
S31508002E70BEA77EA54DA329A1159F0F9D189B319925
S31508002E805A979395DD933792A2901E8FAC8D4B8CF3
S31508002E90FC8ABF8995887C8777868485A484D783AE
S31508002EA01D837782E3816481F7809F805A8028801A
S31508002EB00B8001800B8028805A809F80F780648170
S31508002EC0E38177821D83D783A484848577867C876C
S31508002ED09588BF89FC8A4B8CAC8D1E8FA290379241
S31508002EE0DD9393955A973199189B0F9D159F29A1A4
S31508002EF04DA37EA5BEA70BAA65ACCDAE41B1C1B3A5
S31508002F004CB6E4B886BB32BEE9C0AAC374C646C985
S31508002F1021CC05CFEFD1E1D4DAD7D8DADDDDE6E08A
S31508002F20F5E307E71EEA38ED55F074F396F6B8F9B7
S31508002F30DCFC0000542F000800000020A000000060
S31508002F4028010008F42F0008A0000020E006000071
S31508002F504401000800000000010203040102030402
S31508002F6006070809020406080000000000001A0CFB
S31508002F701A0C1A0C1A0C1A0C1A0C00000000000085
S31508002F800000000000000000000000000000000033
S31508002F9000000000A0000020000000000000000063
S31508002FA00000000000000000000000000000000013
S31508002FB00000000000000000000000000000000003
S31508002FC000000000000000000000000000000000F3
S31508002FD000000000000000000000000000000000E3
S31508002FE000000000000000000000000000000000D3
S30908002FF000000000CF
S705080000ED05
