S31508000000500700208901000815130008DD0F0008B5
S31508000010111300085B050008812000080000000095
S315080000200000000000000000000000004919000858
S31508000030130B000800000000DB170008351A00083B
S31508000040A3010008A3010008A3010008A3010008F2
S31508000050A3010008A3010008A3010008A3010008E2
S31508000060A3010008A3010008A3010008A3010008D2
S31508000070A3010008A3010008A30100086105000800
S31508000080A3010008A3010008A3010008A3010008B2
S31508000090A3010008A3010008A3010008A3010008A2
S315080000A0A3010008A3010008A3010008A301000892
S315080000B0991A0008FD1C0008411D0008A301000844
S315080000C0A3010008A3010008A3010008A301000872
S315080000D0A3010008A3010008A3010008A301000862
S315080000E0A3010008A3010008A301000800F002F814
S315080000F000F03AF80AA090E8000C82448344AAF17A
S315080001000107DA4501D100F02FF8AFF2090EBAE877
S315080001100F0013F0010F18BFFB1A43F0010318472D
S31508000120F42C0000142D0000103A24BF78C878C1BA
S31508000130FAD8520724BF30C830C144BF04680C60DF
S31508000140704700000023002400250026103A28BF27
S3150800015078C1FBD8520728BF30C148BF0B6070472B
S315080001601FB51FBD10B510BD00F0CCF81146FFF73E
S31508000170F7FF01F0E3FF00F0EAF803B4FFF7F2FF38
S3150800018003BC00F0F1F80000094880470948004719
S31508000190FEE7FEE7FEE7FEE7FEE7FEE7FEE7FEE729
S315080001A0FEE7FEE704480549054A064B7047000086
S315080001B0391A0008ED0000085001002050070020F9
S315080001C0500300205003002010B54C1084EA530455
S315080001D004D54042C1F1000138BF491E1B4204D56F
S315080001E05242C3F1000338BF5B1E00F014F814F046
S315080001F0804F04D04042C1F1000138BF491E14F0B7
S31508000200004F04D05242C3F1000338BF5B1E10BD35
S3150800021070477047704753EA020C00F069802DE971
S31508000220F04B4FF00006002B1FBFB3FA83F503FA15
S3150800023005F424FA05F65E4012BF1643B2FA82F5B3
S3150800024002FA05F4C5F120051EBF22FA05FC44EAA8
S315080002500C04203556EA044C4FEA144418BF641CB3
S315080002604FF000084FF00009904271EB030C39D3A8
S31508000270002919BFB1FA81F701FA07F6B0FA80F733
S3150800028000FA07F6C7F120071EBF20FA07FC46EA60
S315080002900C062037B6FBF4FCA7EB0507103F07F062
S315080002A01F0BCBF120060CFA0BFB2CFA06F644BF03
S315080002B0B3460026202FA4BF5E464FF0000B5BEA2C
S315080002C0060C08BF4FF0010B19EB0B09ABFB027CC0
S315080002D048EB0608C01B06FB02CC0BFB03CC71EBF4
S315080002E00C01C1E70B46024641464846BDE8F08B7D
S315080002F013B54FF000004FF00001AFF30080BDE8E2
S315080003001C407047754600F02BF8AE460500694656
S31508000310534620F00700854618B020B5FFF742FF80
S31508000320BDE820404FF000064FF000074FF00008E8
S315080003304FF0000B21F00701AC46ACE8C009ACE869
S31508000340C009ACE8C009ACE8C0098D46704710B5CD
S315080003500446AFF300802046BDE81040FFF70DBF06
S3150800036000487047F000002001491820ABBEFEE7A0
S3150800037026000200704721B1826842F001028260BD
S3150800038003E0826822F001028260704721B1826828
S3150800039042F48072826003E0826822F4807282608E
S315080003A07047000010B504461248844208D101215E
S315080003B0401501F04FFA0021601501F04BFA17E0DD
S315080003C00D48844208D10121001501F043FA0021A5
S315080003D0201501F03FFA0BE00848844208D10121B4
S315080003E0C80301F037FA00214FF4004001F032FA51
S315080003F010BD00000024014000280140003C0140D7
S31508000400014600208A6802F004020AB1012000E0D1
S3150800041000207047014600208A6802F008020AB1E7
S31508000420012000E00020704730B502460020002376
S3150800043050680F4C20400D790C6844EA0524204387
S31508000440506090680B4C2040D1E902542C434D79FA
S3150800045044EA450420439060D06A20F470000C7C7E
S31508000460641EE4B2234340EA0350D06230BD000064
S31508000470FFFEF0FFFDF7F1FFF0B504460D4600203C
S315080004800021092D11DDE068A5F10A0606EB4607ED
S31508000490072606FA07F18843A5F10A0606EB46067B
S315080004A003FA06F10843E0600CE0206905EB45070E
S315080004B0072606FA07F1884305EB450603FA06F10F
S315080004C008432061072A0FDA606B561E06EB86077B
S315080004D01F2606FA07F18843561E06EB860605FA16
S315080004E006F10843606322E00D2A0FDA206BD61F57
S315080004F006EB86071F2606FA07F18843D61F06EB82
S31508000500860605FA06F10843206310E0E06AA2F1C0
S315080005100D0606EB86071F2606FA07F18843A2F1A1
S315080005200D0606EB860605FA06F10843E062F0BDFD
S31508000530816841F008018160704721B1826842F400
S31508000540A002826003E0826822F4A00282607047FB
S31508000550816841F004018160704700BFFEE7000032
S3150800056010B54FF4003000F095FA00286FD04FF41C
S31508000570003000F0CFF90121494800F082FD002142
S31508000580484800F0D5F90021454800F056FD464890
S315080005900088401C4449088008460088202813DB48
S315080005A001204249087042480068424908604048AC
S315080005B000684149884201D1404800E03E483C492C
S315080005C008600020384908800221364800F09FFA62
S315080005D0354800883649096801EB400031495839E1
S315080005E0486601212E4800F040FD4FF47A7400E079
S315080005F0641E33492A4800F0FFFC08B9002CF7D1DD
S3150800060000220C21264800F0DFFD4FF47A7400E042
S31508000610641E2C49224800F0EFFC08B9002CF7D1DB
S3150800062003211F4800F0D9FD4FF47A7400E0641ED8
S315080006302449891C1A4800F0DFFC08B9002CF6D1B9
S315080006400121174800F011FD4FF47A7401E025E006
S31508000650641E1B49124800F0CFFC08B9002CF7D1DC
S3150800066001220C210E4800F0AFFD4FF47A7400E029
S31508000670641E1349491C0A4800F0BEFC08B9002C40
S31508000680F6D10121064800F0E4FC0121044800F0F7
S31508000690D4FC0121034800F04BF900BF10BD00004F
S315080006A00058004058000240400000204200002048
S315080006B0380000203C00002070000020B000002018
S315080006C0010003008200070070B50246094830F8A9
S315080006D01130D01A04B240F6E440604340F6FF7683
S315080006E090FBF6F54FF47A706843B92690FBF6F05E
S315080006F070BD00001A0000203EB500200090019051
S315080007000290002417E001211348FFF716FF012085
S3150800071000F000FA114909880098084400900F492A
S3150800072049880198084401900C4989880298084428
S315080007300290601C84B2802CE5DB0098C0F3CF10D1
S31508000740074908800198C0F3CF1048800298C0F383
S31508000750CF1088803EBD0000002401401400002010
S315080007601A00002000B591B00121480201F062F894
S315080007700121042001F05EF80121084601F03AF84B
S315080007804FF4004001F02AF800208DF84300E020DD
S31508000790ADF8400003208DF8420010A93E4800F04D
S315080007A08DFB3E4800F0D0F8032008900020079003
S315080007B00F9020200D90C0010E90394806904FF4F6
S315080007C080600C9080200A903648059080150B9022
S315080007D00020099005A9314800F07BF901212F482E
S315080007E000F0A6F82F484C38FFF7DCFD00200090F3
S315080007F001208DF804008DF805004FF46020029062
S315080008000020039003208DF81000694625484C38CF
S31508000810FFF70AFE02230122052122484C38FFF77A
S315080008202BFE02231A4606211E484C38FFF724FEE3
S315080008300223032207211B484C38FFF71DFE01211E
S3150800084018484C38FFF7A2FD012116484C38FFF727
S3150800085092FD14484C38FFF76BFE00BF11484C3820
S31508000860FFF7D8FD0128F9D00E484C38FFF770FE7F
S3150800087000BF0C484C38FFF7C3FD0128F9D000F03B
S3150800088013F8012107484C38FFF757FEC82000F037
S3150800089041F911B000BD00000008014008000240FF
S315080008A0140000204C2401401FB50121022000F04D
S315080008B0B1FF0020ADF80A00ADF8060041F61F406A
S315080008C0ADF808000020ADF804008DF80C0001A969
S315080008D00F4801F083FB20210D4801F06FFB002231
S315080008E001210B4801F062FA1D208DF80000022054
S315080008F08DF8010000208DF8020001208DF8030014
S31508000900684600F009FD0121014801F032FA1FBDD1
S315080009100004004000F0805111B10349086001E06D
S315080009200249486070470000040402400000024083
S3150800093021B1026842F00102026004E002684FF643
S31508000940FE731A400260704701684FF6FE72114046
S3150800095001600021016041608160C1604B498842A5
S3150800096008D14A490839496841F00F01474A083A07
S3150800097051608AE045491431884208D1434908390B
S31508000980496841F0F001414A083A51607DE03F4923
S315080009902831884208D13D490839496841F47061CF
S315080009A03A4A083A516070E038493C31884208D1E1
S315080009B036490839496841F47041344A083A516061
S315080009C063E032495031884208D1304908394968CC
S315080009D041F470212D4A083A516056E02B4964319A
S315080009E0884208D129490839496841F47001274ADB
S315080009F0083A516049E025497831884208D12349A7
S31508000A000839496841F07061204A083A51603CE06B
S31508000A101F49884206D1011F096841F00F01021FCC
S31508000A20116032E01A491431884208D11849091F61
S31508000A30096841F0F001164A121F116025E01449B1
S31508000A402831884208D11249091F096841F47061A2
S31508000A500F4A121F116018E00D493C31884208D12F
S31508000A600B49091F096841F47041094A121F1160B0
S31508000A700BE007495031884207D10549091F096823
S31508000A8041F47021024A121F1160704708000240A3
S31508000A900804024001460020002201F0805313B1E9
S31508000AA0054B1A6801E0054B1A6802EA01030BB107
S31508000AB0012000E0002070470004024000000240C8
S31508000AC01AB103680B43036002E003688B430360B3
S31508000AD0704710B50022026847F6F0739A430C6A0D
S31508000AE08B6823430C6923434C6923438C6923434E
S31508000AF0CC6923434C6A23438C6A23431A43026016
S31508000B00CB6843600B6883604B68C36010BD416067
S31508000B107047704700B5034603E04FF47A7000F05B
S31508000B2005F8181EA3F10103F7D100BD00EBC001BB
S31508000B30C9004FF0E0225161002191610521116140
S31508000B4000BF4FF0E021096901F480310029F8D08F
S31508000B5004214FF0E02211617047000000B58DB006
S31508000B600121084600F046FE1948FFF7EDFE194830
S31508000B70029019480068039000200490022005900E
S31508000B8000200690802007900020089009900A907F
S31508000B904FF400500B9000200C9002A90C48FFF768
S31508000BA098FF012202210A48FFF78AFF0F208DF8D5
S31508000BB0040001208DF8070002208DF805000020AA
S31508000BC08DF8060001A800F0A7FB0DB000BD0000D7
S31508000BD05800024010580040380000202DE9F04126
S31508000BE000F036F8064616480088341A1548068076
S31508000BF01348008814490880B4F5005F02DDA4F59F
S31508000C00804404E014F5005F01DA04F580440F48D7
S31508000C100068001B0D490860094806800868C11766
S31508000C2000EB91418913A0EB8135002D01DA05F51A
S31508000C3080454FF461606843870B38B2BDE8F081A0
S31508000C40240000204600002048000020280000203C
S31508000C501CB50020019000906A4601A9032000F007
S31508000C60BFFA10B9074800881CBD9DF800009DF81A
S31508000C70041040EA0120C0F30D040248048020460F
S31508000C80F2E70000440000200148B0F90000704770
S31508000C903400002010B586B00121082000F0CAFDF6
S31508000CA00121880500F0B6FD1C208DF817000320E9
S31508000CB08DF816008002ADF8140005A92A4800F040
S31508000CC0FDF80020ADF808004BF6FF70ADF80A00F5
S31508000CD00020ADF80C004FF48060ADF80E0000015E
S31508000CE0ADF810002148019001A9214800F0F2F959
S31508000CF001211F4800F095F900201E4908601E4989
S31508000D0008801E4908601E4908601E4908601E4979
S31508000D1008801E4908801E4908701E49087000F0A0
S31508000D2043F8FFF71BFF6420FFF7F4FEFFF790FF79
S31508000D3004461420FFF7EEFEFFF78AFF0446142048
S31508000D40FFF7E8FEFFF784FF0446134804801348BC
S31508000D500480134804800848048012480480074821
S31508000D60046006B010BD0000000C0140801A0600A1
S31508000D700058004020000020240000202800002001
S31508000D802C00002030000020340000204000002005
S31508000D9042000020360000204A00002046000020BD
S31508000DA048000020440000201FB50121042000F05F
S31508000DB031FD0020ADF80A00ADF8060041F61F40E7
S31508000DC0ADF804006320ADF8080000208DF80C008B
S31508000DD001A90E4801F002F9012211460B4800F05C
S31508000DE0E5FF1E208DF8000001208DF80300032082
S31508000DF08DF8010000208DF80200684600F08CFA94
S31508000E000121024800F0B5FF1FBD000000080040A0
S31508000E102DE9F0471448046814480068A4EB000953
S31508000E20B9F1640F01D2BDE8F0871148006811498D
S31508000E300968A0EB010A4FEA8930C31705464EF642
S31508000E4060208AFB007001462A463846FFF7BCF93F
S31508000E5000B2094908800648006806490860034840
S31508000E60046000BFDFE700002000002030000020FB
S31508000E70280000202C000020340000200020024911
S31508000E800860024908607047640000206800002076
S31508000E9000B5FFF7F3FF002004490860044908700D
S31508000EA00449088001200449087000BD5C00002040
S31508000EB05400002062000020570000202DE9F04170
S31508000EC0024600250026002000230024002791F86A
S31508000ED003C00CF00F0591F803C00CF0100CBCF120
S31508000EE0000F03D091F802C04CEA050591F800C03E
S31508000EF0BCF1000F31D0146800202BE04FF0010C34
S31508000F000CFA00F3B1F800C00CEA03069E4220D1A1
S31508000F1083004FF00F0C0CFA03F7BC4305FA03FCE9
S31508000F204CEA040491F803C0BCF1280F06D14FF02F
S31508000F30010C0CFA00FCC2F814C00AE091F803C0D0
S31508000F40BCF1480F05D14FF0010C0CFA00FCC2F8B1
S31508000F5010C0401C0828D1D31460B1F800C0BCF1F9
S31508000F60FF0F34DD546800202EE000F1080C4FF026
S31508000F70010808FA0CF3B1F800C00CEA03069E4211
S31508000F8021D183004FF00F0C0CFA03F7BC4305FA86
S31508000F9003FC4CEA040491F803C0BCF1280F05D100
S31508000FA000F1080C08FA0CF8C2F8148091F803C08E
S31508000FB0BCF1480F07D100F1080C4FF0010808FAF8
S31508000FC00CF8C2F81080401C0828CED35460BDE83F
S31508000FD0F0810AB1016100E04161704700BFFEE798
S31508000FE021B1028842F48062028004E002884FF64A
S31508000FF0FF331A400280704770B502460024002568
S3150800100000230020958A138B1B0445EA030626F065
S315080010107F4404EA01068E4201D1012000E0002047
S3150800102070BD21B1028842F00102028004E0028804
S315080010304FF6FE731A400280704721B1828842F447
S315080010400062828004E082884FF2FF731A40828031
S31508001050704721B1828842F48052828004E08288F7
S315080010604EF6FF731A408280704721B1028842F417
S315080010708072028004E002884FF6FF631A400280FD
S31508001080704721B1028842F40072028004E00288A7
S315080010904FF6FF531A40028070470CB502460020EF
S315080010A000230193009300920B0F019321F07F41D7
S315080010B0019B1BB1009B1433009303E0090C009BB2
S315080010C018330093009B1B680B400BB1012000E00E
S315080010D000200CBD2DE9F04385B004460D460026D8
S315080010E0B1460427DFF8CC80A6884FF6C0700640C4
S315080010F0684600F0BFFBDDF808802F48B8FBF0F023
S315080011001FFA80F946EA0906A68020884FF6FE717E
S315080011100840208000262949286888420CD8286873
S315080011204000B8FBF0F087B2042F00DA04273E43EC
S3150800113009F10100208427E0E8884BF6FF71884210
S3150800114006D1286800EB4000B8FBF0F087B209E04A
S31508001150286800EBC00101EB0010B8FBF0F087B27D
S3150800116047F48047C7F30B0008B947F0010747F46F
S31508001170004006434FF4967009FB00F04FF47A716D
S3150800118090FBF1F0401C2084A683208840F00100E3
S31508001190208026884FF6F5300640A88869890843D6
S315080011A006432680A88929890843208105B0BDE819
S315080011B0F083000000127A0040420F00A08601006A
S315080011C00146088AC0B2704712B141F0010102E037
S315080011D04FF6FE731940018270470182704700007E
S315080011E02DE9F04105460E46174642F2107400E016
S315080011F0641E4FF400314348FFF74FFF08B1002C37
S31508001200F6D114B90020BDE8F08101213D48FFF769
S315080012102CFF42F2107400E0641E3B493948FFF780
S31508001220EBFE08B9002CF7D100220C213548FFF750
S31508001230CBFF42F2107400E0641E34493148FFF7D0
S31508001240DBFE08B9002CF7D129462E48FFF7C5FF63
S3150800125042F2107400E0641E2C49891C2948FFF7E5
S31508001260CBFE08B9002CF6D101212648FFF7FDFE72
S3150800127042F2107400E0641E23492248FFF7BCFEC0
S3150800128008B9002CF7D101220C211E48FFF79CFF54
S3150800129042F2107400E0641E1B49491C1948FFF706
S315080012A0ABFE08B9002CF6D142F2107400E0641EB9
S315080012B015493F311348FFF79FFE08B9002CF6D1B0
S315080012C01048FFF77DFF307000210E48FFF788FEB3
S315080012D042F2107400E0641E0B493F310948FFF7DB
S315080012E08BFE08B9002CF6D10648FFF769FF38705F
S315080012F001210448FFF7C5FE01210248FFF770FEE9
S31508001300012080E700580040010003008200070022
S3150800131000BFFEE77047000070B5002100230F22CA
S31508001320C47804B3154C246804F4E064C4F5E06496
S31508001330210AC1F10403CA40447804FA03F1847807
S315080013401440214309010E4C0678A155047804F08F
S315080013501F050124AC4005786D11AD0005F1E025A7
S31508001360C5F8004109E0047804F01F050124AC40E3
S31508001370044D0678761145F8264070BD0CED00E060
S3150800138000E400E080E100E002490143024A1160FE
S31508001390704700000000FA050CED00E070B5002467
S315080013A00EE00021204600F0F4F8002504E00020B5
S315080013B000F080F9681CC5B2802DF8DB601CC4B249
S315080013C0082CEEDB70BD000008B50121082000F0EE
S315080013D031FA14208DF8030003208DF802004FF42B
S315080013E08070ADF8000069460A48FFF767FD4FF4BC
S315080013F00070ADF8000069460648FFF75FFD012258
S3150800140011020448FFF7E5FD012251020148FFF7E2
S31508001410E0FD08BD000C014070B50546002419E042
S3150800142080202041284008B1012000E00020024623
S315080014304FF400710E48FFF7CCFD012211020C484B
S31508001440FFF7C7FD00224FF480710948FFF7C1FD79
S31508001450601CC4B2082CE3DB012211020448FFF722
S31508001460B8FD00224FF480710148FFF7B2FD70BD48
S31508001470000C014010B5012251020A48FFF7A9FDE8
S31508001480012211020748FFF7A4FD00224FF400715C
S315080014900448FFF79EFD00224FF480710148FFF7CC
S315080014A098FD10BD000C014010B500224FF40071E4
S315080014B00648FFF78EFD012211020448FFF789FD51
S315080014C0012251020148FFF784FD10BD000C0140BE
S315080014D070B5002406E0002500E06D1CB5F57A7F9E
S315080014E0FBD3641CB4F57A7FF5D3FFF76DFFAE2006
S315080014F000F0D0F8D52000F0CDF8802000F0CAF82A
S31508001500A82000F0C7F83F2000F0C4F8D32000F068
S31508001510C1F8002000F0BEF8402000F0BBF8A1207A
S3150800152000F0B8F8C82000F0B5F8DA2000F0B2F8F4
S31508001530122000F0AFF8812000F0ACF8CF2000F0C0
S31508001540A9F8D92000F0A6F8F12000F0A3F8DB20CE
S3150800155000F0A0F8302000F09DF8A42000F09AF8DA
S31508001560A62000F097F88D2000F094F8142000F0DB
S3150800157091F8AF2000F08EF8FFF710FF70BD10B598
S315080015800246012000E050430B1EA1F10101FAD1E9
S3150800159010BD70B505460C4645F0B00000F07AF867
S315080015A0102141EA141000F075F804F00F0000F05D
S315080015B071F870BD2DE9F04105460E461746721EB4
S315080015C0D206110E6A1E5206100EFFF7E2FF00241D
S315080015D009E0A7F12001134A02EB0111085D00F0AA
S315080015E069F8601CC4B2082CF3DB721ED206110E11
S315080015F06A1E012303EB4202D0B2FFF7CAFF00249A
S315080016000BE0A7F12001074A02EB011204F10801D9
S31508001610505C00F04FF8601CC4B2082CF1DBBDE842
S31508001620F0810000222600082DE9F04780460E4684
S3150800163017461D46002415E0281B411E0A20FFF701
S315080016409EFFB7FBF0F00A21B0FBF1F201FB120096
S3150800165000F130093019C1B24A464046FFF7AAFFE1
S31508001660601CC4B2AC42E7DBBDE8F0872DE9F04167
S3150800167007460E461546002407E02A5D3019C1B212
S315080016803846FFF797FF601CC4B2285D0028F4D1DE
S31508001690BDE8F08110B50446FFF7ECFE7820FFF7A9
S315080016A0BBFE0020FFF7B8FE2046FFF7B5FEFFF7A2
S315080016B0FBFE10BD10B50446FFF7DCFE7820FFF7E9
S315080016C0ABFE4020FFF7A8FE2046FFF7A5FEFFF772
S315080016D0EBFE10BD08B50121084600F09BF800F0A6
S315080016E02FF84FF0804000F05FF84FF0804000F090
S315080016F03DF800214FF0804000F069FC00214FF0D2
S31508001700804000F066FC00214FF0804000F063FC4A
S3150800171001221146900700F049FB1C208DF80000B5
S3150800172000208DF801008DF8020001208DF80300D5
S315080017306846FFF7F1FD0121880700F01AFB08BD8E
S3150800174008B50121042000F075F818208DF803006B
S3150800175003208DF802000720ADF80000694602480C
S31508001760FFF7ACFB08BD0000000801401FB50446A2
S31508001770684600F019FC6020ADF800000020ADF8BE
S3150800178008000120ADF802000020ADF80600694601
S31508001790204600F01BFB6946204600F063FB6946BD
S315080017A0204600F0B1FB1FBD3EB50446204600F0BA
S315080017B006FB0020ADF806002020ADF8020040F236
S315080017C00770ADF804000020ADF800008DF8080099
S315080017D06946204600F002FC3EBD704701460020DF
S315080017E0034A506820F440400843506070470000A0
S315080017F00010024029B1064A52690243044B5A6155
S3150800180004E0034A52698243014B5A61704700005B
S315080018100010024029B1064AD2690243044BDA6134
S3150800182004E0034AD2698243014BDA61704700003B
S315080018300010024029B1064A92690243044B9A6194
S3150800184004E0034A92698243014B9A61704700009B
S315080018500010024029B1064AD2680243044BDA60F6
S3150800186004E0034AD2688243014BDA6070470000FD
S315080018700010024030B500210022002400232D4D1F
S315080018806D6805F00C0121B1042905D0082923D17A
S3150800189005E0294D056022E0274D05601FE0254D2E
S315080018A06D6805F47012234D6D6805F480340225C1
S315080018B005EB92421CB9214D554305600BE01D4DC1
S315080018C06D6805F400351DB11C4D5543056002E0F1
S315080018D0194D5543056002E0174D056000BF00BF6E
S315080018E0144D6D6805F0F0010909154D6B5C056826
S315080018F0DD4045600F4D6D6805F4E061090A104D3D
S315080019006B5C4568DD4085600A4D6D6805F460517D
S31508001910C90A0B4D6B5C4568DD40C560054D6D68B1
S3150800192005F44041890B074D6B5CC568B5FBF3F5BB
S31508001930056130BD0010024000127A0000093D0022
S3150800194000000020100000207047704710B500F016
S3150800195001F810BD0CB500200190009033480068CE
S3150800196040F480303149086000BF3048006800F410
S31508001970003000900198401C0190009818B9019811
S31508001980B0F5A06FF1D12948006800F4003010B115
S315080019900120009001E0002000900098012843D122
S315080019A02348006840F0100021490860084600688E
S315080019B020F0030008600846006840F0020008604E
S315080019C01A48406819494860084640684860084609
S315080019D0406840F4806048600846406820F47C10FF
S315080019E048600846406840F4E810486008460068C1
S315080019F040F08070086000BF0C48006800F0007076
S31508001A000028F9D00948406820F0030007494860D3
S31508001A100846406840F00200486000BF0348406836
S31508001A2000F00C000828F9D10CBD00000010024097
S31508001A30002002407047000010B51348006840F0C7
S31508001A4001001149086008464068104908400E49D7
S31508001A504860084600680E4908400B490860084671
S31508001A60006820F4802008600846406820F4FE00DC
S31508001A7048604FF41F008860FFF768FF4FF000606A
S31508001A800449086010BD0000001002400000FFF87D
S31508001A90FFFFF6FE08ED00E02DE9F04F8BB00121BF
S31508001AA0880700F072F901287ED10121800700F02D
S31508001AB05DF9874908880021FEF706FE00B28549C8
S31508001AC00880834948880121FEF7FEFD00B2824955
S31508001AD008807F4988880221FEF7F6FD00B27F4913
S31508001AE008807F48007888B900214FF0804000F0D0
S31508001AF06EFA00214FF0804000F06BFA00214FF09B
S31508001B00804000F068FA0BB0BDE8F08F74480078A2
S31508001B1001284CD109A80AAB0022114600904FF4BF
S31508001B20FA5000F0E3FA06A807AB08AA0090BDF938
S31508001B302410BDF9280000F003FDBDF820104FF071
S31508001B40804000F044FABDF81C104FF0804000F0C9
S31508001B5040FABDF818104FF0804000F03CFA614892
S31508001B600068401C5F4908600846006844F6206122
S31508001B7088421BD35C480288C2EBC2004FF46161FD
S31508001B80B0FBF1F401FB14031804B0FBF1F040427A
S31508001B9000B256490880FFF771F9012054490870C8
S31508001BA002204F49087000E083E000BFABE74C48CD
S31508001BB0007802287DD14C48B0F80080C8EBC800F0
S31508001BC04FF46161B0FBF1F201FB12094FEA0940DB
S31508001BD0B0FBF1F084B245480088204484B24548F9
S31508001BE0007808B1604284B23A48B0F90000C0EB08
S31508001BF0C03040F2DC5190FBF1F005B23648B0F93E
S31508001C000000C0EBC03090FBF1F006B23348B0F9E3
S31508001C100000C0EBC03090FBF1F007B209A80AAB90
S31508001C203A4631460090284600F037FA07A808AB2E
S31508001C3022460090BDF92410BDF9280000F002FCE8
S31508001C40BDF82010494208B200F026FC83462A490E
S31508001C500988BDF81C20891A08B200F047FC82469C
S31508001C6046F266625142584600F00CFA834646F23E
S31508001C7066625142504600F005FA824605A806AB50
S31508001C80224651460090584600F030FA02A803ABA7
S31508001C9004AA0090BDF91410BDF9180000F050FC14
S31508001CA0BDF810104FF0804000F091F9BDF80C1007
S31508001CB000E00AE04FF0804000F08BF9BDF808100C
S31508001CC04FF0804000F087F900BF00BF1BE7000017
S31508001CD0140000204C0000204E0000205000002078
S31508001CE0570000205C000020520000206000002001
S31508001CF054000020580000206200002010B5012181
S31508001D000C4800F042F8012813D1FFF71EFE0A48D6
S31508001D100088401C0849088008460088022804DB19
S31508001D20002008800120054908700121014800F0BB
S31508001D301DF810BD000400406C000020550000206E
S31508001D4010B50121074800F020F8012808D10648F7
S31508001D500068401C044908600121024800F006F8A2
S31508001D6010BD00000008004020000020CA4302827F
S31508001D70704721B1028842F00102028004E002881D
S31508001D804FF6FE731A400280704730B502460020AF
S31508001D9000230024158A05EA0103958905EA01044A
S31508001DA013B10CB1012000E0002030BD1AB18389BF
S31508001DB00B43838102E083898B43838170470189C2
S31508001DC04FF6F872114001817047000070B5002483
S31508001DD000220023058C4FF6FE7635400584028CDA
S31508001DE08388048B4FF68F752C40B51E2C400D88C2
S31508001DF02C43751E2A400D892A434D882A43144DC3
S31508001E00A8420BD0134DA84208D0134DA84205D0BE
S31508001E10124DA84202D0124DA84213D14FF6F775BB
S31508001E202A404D892A434FF6FB752A408D882A4356
S31508001E304FF6FF652B404FF6FF552B408D892B43F8
S31508001E40CD892B4383800483CD888586028470BD23
S31508001E50002C01400034014000400140004401408C
S31508001E600048014070B5002400220023058C4FF677
S31508001E70EF7635400584028C8388048B48F6FF7517
S31508001E802C404FF6FF452C400D884FF6FF7606EAA4
S31508001E9005252C434FF6DF752A400D8906EA0515F8
S31508001EA02A434D8806EA05152A43154DA84202D04D
S31508001EB0144DA8421DD14FF67F752A404D894FF61D
S31508001EC0FF7606EA05152A434FF6BF752A408D8820
S31508001ED006EA05152A434FF6FF352B404FF2FF75E4
S31508001EE02B408D8906EA85052B43CD8906EA8505AB
S31508001EF02B4383800483CD880587028470BD000048
S31508001F00002C01400034014070B500240022002353
S31508001F10058C4FF6FF6635400584028C8388848BD2
S31508001F204FF68F752C404FF6FC752C400D882C43C8
S31508001F304FF6FF552A400D894FF6FF7606EA052526
S31508001F402A434D8806EA05252A43154DA84202D09C
S31508001F50144DA8421DD14FF2FF752A404D894FF600
S31508001F60FF7606EA05252A434FF6FF352A408D886F
S31508001F7006EA05252A434EF6FF752B404DF6FF75F2
S31508001F802B408D8906EA05152B43CD8906EA0515EA
S31508001F902B4383808483CD888587028470BD0000A7
S31508001FA0002C0140003401400021018041808180DD
S31508001FB0C180018141818181C181704782884FF644
S31508001FC08F731A40828082880A438280704781868E
S31508001FD07047018770478187704700000022028892
S31508001FE01D4B98420ED01D4B98420BD0B0F1804F36
S31508001FF008D01B4B984205D01A4B984202D01A4B70
S31508002000984204D14FF68F731A404B881A43174BE0
S31508002010984207D0164B984204D04FF6FF431A4011
S31508002020CB881A4302808B8883850B8803850A4BE5
S3150800203098420BD0094B984208D00E4B984205D0CF
S315080020400D4B984202D00D4B984201D10B7A03866C
S315080020500123838270470000002C014000340140B0
S315080020600004004000080040000C0040001000403A
S31508002070001400400040014000440140004801406F
S3150800208000BFFEE703468B4201DA084670479342D3
S3150800209001DD1046FAE718B2F8E770B51546049C54
S315080020A0188000EB410244F6E7165643F61336B29B
S315080020B0268070BD10B5044604F5804188B200F04C
S315080020C001F810BD70B501460A12CCB2064830F9BF
S315080020D01230501CC0B2044E36F91050E81A60434C
S315080020E003EB202000B270BD122C00082DE9F84F32
S315080020F004460D4616461F46DDF828A03046FFF76B
S31508002100D9FF80463046FFF7DDFF814604FB08F01D
S31508002110C11305FB09F0A1EBE03B04FB09F0C11371
S3150800212005FB08F001EBE03000900FFA8BF03880E1
S31508002130009800B2AAF80000BDE8F88F1FB54FF462
S31508002140A060FFF721F9FFF7C3F9FFF727F980A287
S3150800215001210846FFF78AFA4FF4FA70FEF7DAFC0F
S31508002160FFF7B8FA7FA201210220FFF77FFA4FF4A2
S31508002170FA70FEF7CFFC80A201210320FFF776FA5A
S31508002180FEF7F0FA81A201210320FFF76FFA4FF458
S31508002190FA70FEF7BFFC82A201210420FFF766FA57
S315080021A0FEF778FD83A201210420FFF75FFA4FF4BA
S315080021B0FA70FEF7AFFCFFF7F1F883A20121084693
S315080021C0FFF754FAFEF798FA84A201210846FFF7AA
S315080021D04DFA87A201210220FFF748FA89A20121B8
S315080021E00320FFF743FA8CA201210420FFF73EFAE9
S315080021F0012211468D48FFF7D9FD6420FEF78AFCB7
S31508002200FEF746FEA2E0FEF7E9FC81461FFA89F0D2
S315080022100390874903980880FEF7FAFD85480078F9
S31508002220002874D0002083490870814800880A2154
S3150800223090FBF1F080B20290FEF726FD0446002CD2
S3150800224001DA2D2000E02B200190002C01DA6042F3
S3150800225000E0204685B2032305210120029AFFF7F4
S31508002260E3F909210120019AFFF7A4F904232A4674
S315080022700B210120FFF7D8F96F48B0F900000028B4
S3150800228001DA2D2000E02B2000906B48B0F9000001
S31508002290002804DA6848B0F90000404202E06648BF
S315080022A0B0F9000086B204210220009AFFF782F9ED
S315080022B00523324619460220FFF7B6F95F48B0F9FA
S315080022C00000002801DA2D2000E02B2082465B481A
S315080022D0B0F90000002804DA5848B0F90000404276
S315080022E002E05648B0F9000087B25246042103209E
S315080022F0FFF760F905233A4619460320FFF794F9D4
S315080023004F48B0F90000002802DA2D2001E01CE051
S315080023102B2083464A48B0F90000002804DA4848CA
S31508002320B0F90000404202E04548B0F900001FFA43
S3150800233080F85A4604210846FFF73CF90523424629
S3150800234019460420FFF770F900BF00BF5BE70000DD
S315080023505374657020313A204F4C4544204F4B202A
S31508002360000000005374657020323A2050574D2003
S315080023704F4B2020000000005374657020333A202C
S315080023804144432E2E2E2020000000005374657011
S3150800239020333A20414443204F4B202000000000C0
S315080023A05374657020343A20454E432E2E2E202035
S315080023B0000000005374657020343A20454E4320CF
S315080023C04F4B20200000000043616C696272617403
S315080023D0696E672E2E2E202000000000416E673A97
S315080023E02020205370643A2020202020000000007E
S315080023F049613A202020202020202020206D4120DD
S315080024000000000049623A202020202020202020B9
S31508002410206D41200000000049633A20202020203A
S3150800242020202020206D41200000000000040040EC
S3150800243052000020550000204C0000204E000020CD
S31508002440500000202DE9F84F04460D4616461F4653
S31508002450DDF828A03046FFF72DFE80463046FFF708
S3150800246031FE814604FB08F0C11305FB09F001EBB8
S31508002470E03B04FB09F0C013414205FB08F001EB01
S31508002480E03000900FFA8BF03880009800B2AAF876
S315080024900000BDE8F88F00002DE9F041044647F634
S315080024A0FF75FA206043C0130A2190FBF1F60E4827
S315080024B0006830440C4908602A46684201B20A4856
S315080024C00068FFF7DFFD0849086041F69910604388
S315080024D0096801EBE0372A46684201B23846FFF739
S315080024E0D1FDBDE8F0810000640000202DE9F0412F
S315080024F0044647F6FF75FA206043C0130A2190FB8D
S31508002500F1F60E48006830440C4908602A466842CD
S3150800251001B20A480068FFF7B5FD0849086041F6A8
S3150800252099106043096801EBE0372A46684201B210
S315080025303846FFF7A7FDBDE8F081000068000020D7
S315080025402DE9FF4F81B0044620464FEA640ACAF1D6
S31508002550000B46F6DA6EDDF808A00AFB0EFA0BEB5E
S31508002560EA334FEA640ACAF1000BDDF808A00AFB51
S315080025700EFAABEBEA3500900098834200DD009333
S31508002580DDF800A0554500DD009506463046834235
S3150800259000DA1E46B54200DA2E46DDF800A0B2443F
S315080025A0CAF1000A4FEA6A0840444344454440F2E7
S315080025B083310A4600FB02FA01EBEA3703FB02FA0B
S315080025C001EBEA3C05FB02FA01EBEA39002F00DAD7
S315080025D00027BCF1000F01DA4FF0000CB9F1000F2B
S315080025E001DA4FF00009B7F5E16F01D340F207773A
S315080025F0BCF5E16F01D340F2077CB9F5E16F01D371
S3150800260040F20779DDF80CA0AAF80070DDF810A0F2
S31508002610AAF800C0DDF838A0AAF8009005B0BDE811
S31508002620F08F00000000000000000000000000001D
S315080026300000000000F80000000000000033300031
S31508002640000000100C06100C060000000000000038
S31508002650000040C07840C0784000043F04043F04AE
S315080026600400007088FC08300000001820FF211EB6
S315080026700000F008F000E018000000211C031E21ED
S315080026801E0000F00888700000001E212324192768
S31508002690211010160E0000000000000000000000C7
S315080026A00000000000E018040200000000071820DF
S315080026B0400000020418E00000000040201807004F
S315080026C00000404080F0804040000202010F0102F5
S315080026D00200000000F0000000000101011F0101D6
S315080026E00100000000000000000080B0700000003B
S315080026F000000000000000000000000101010101C7
S315080027000101000000000000000000303000000059
S315080027100000000000008060180400601806010030
S31508002720000000E010080810E000000F102020103C
S315080027300F00001010F8000000000020203F2020A5
S31508002740000000700808088870000030282422213C
S3150800275030000030088888483000001820202011F2
S315080027600E000000C02010F8000000070424243FD3
S31508002770240000F80888880808000019212020117C
S315080027800E0000E0108888180000000F11202011A4
S315080027900E0000380808C83808000000003F00008E
S315080027A000000070880808887000001C2221212279
S315080027B01C0000E010080810E00000003122221179
S315080027C00F00000000C0C00000000000003030000C
S315080027D0000000000080000000000000806000008B
S315080027E000000000804020100800000102040810C4
S315080027F020004040404040404000040404040404D3
S315080028000400000810204080000000201008040280
S315080028100100007048080808F00000000030360182
S315080028200000C030C828E810E00007182724231441
S315080028300B000000C038E0000000203C23020227FD
S31508002840382008F8888888700000203F202020114A
S315080028500E00C03008080808380007182020201085
S31508002860080008F808080810E000203F202020107B
S315080028700F0008F88888E8081000203F2020232049
S31508002880180008F88888E8081000203F2000030090
S315080028900000C03008080838000007182020221E4B
S315080028A0020008F808000008F808203F2101012165
S315080028B03F20000808F8080800000020203F2020D4
S315080028C0000000000808F8080800C08080807F0023
S315080028D0000008F888C028180800203F200126387C
S315080028E0200008F8080000000000203F20202020D3
S315080028F0300008F8F800F8F80800203F003F003FCD
S31508002900200008F830C00008F808203F2000071803
S315080029103F00E01008080810E0000F1020202010E3
S315080029200F0008F808080808F000203F21010101F7
S315080029300000E01008080810E0000F18242438509A
S315080029404F0008F8888888887000203F2000030C0C
S315080029503020007088080808380000382021212215
S315080029601C00180808F8080818000000203F200076
S31508002970000008F808000008F808001F202020209A
S315080029801F000878880000C83808000007380E01BC
S315080029900000F80800F80008F800033C0700073CA8
S315080029A00300081868808068180820302C03032C58
S315080029B030200838C800C83808000000203F20002A
S315080029C0000010080808C8380800203826212020EA
S315080029D01800000000FE020202000000007F4040CE
S315080029E04000000C30C0000000000000000106385E
S315080029F0C00000020202FE000000004040407F00C6
S31508002A0000000000040202020400000000000000AA
S31508002A1000000000000000000000808080808080A8
S31508002A208080000202040000000000000000000090
S31508002A3000000000808080800000001924222222E5
S31508002A403F2008F8008080000000003F1120201178
S31508002A500E000000008080800000000E112020205B
S31508002A601100000000808088F800000E1120201058
S31508002A703F200000808080800000001F2222222242
S31508002A801300008080F0888888180020203F2020C6
S31508002A9000000000808080808000006B94949493EE
S31508002AA0600008F8008080800000203F2100002098
S31508002AB03F2000809898000000000020203F20203A
S31508002AC00000000000809898000000C08080807F89
S31508002AD0000008F8000080808000203F24022D3086
S31508002AE02000000808F8000000000020203F2020F1
S31508002AF000008080808080808000203F20003F206A
S31508002B00003F8080008080800000203F2100002058
S31508002B103F200000808080800000001F20202020A9
S31508002B201F00808000808000000080FFA120201107
S31508002B300E000000008080808000000E112020A07A
S31508002B40FF80808080008080800020203F21200038
S31508002B500100000080808080800000332424242423
S31508002B601900008080E0808000000000001F2020FF
S31508002B7000008080000000808000001F20202010B8
S31508002B803F20808080000080808000010E3008068B
S31508002B90010080800080008080800F300C030C309C
S31508002BA00F0000808000808080000020312E0E31CA
S31508002BB02000808080000080808080818E701806CA
S31508002BC0010000808080808080000021302C222136
S31508002BD0300000000000807C020200000000003F78
S31508002BE0404000000000FF00000000000000FF0059
S31508002BF000000002027C800000000040403F000008
S31508002C0000000006010102020404000000000000A2
S31508002C1000000000240348066A098C0CAB0FC81292
S31508002C20E215F9180B1C1A1F2322282526281F2B04
S31508002C30112EFB30DF33BA368C39563C173FCE415E
S31508002C407A441C47B4493F4CBF4E33519B53F55504
S31508002C504258825AB35CD75EEB60F162E864CF668D
S31508002C60A6686D6A236CC96D5E6FE2705472B5739F
S31508002C70047541766B77847889797C7A5C7B297CC4
S31508002C80E37C897D1D7E9C7E097F617FA67FD87F38
S31508002C90F57FFF7FF57FD87FA67F617F097F9C7EC2
S31508002CA01D7E897DE37C297C5C7B7C7A89798478A6
S31508002CB06B7741760475B5735472E2705E6FC96DB1
S31508002CC0236C6D6AA668CF66E864F162EB60D75E2E
S31508002CD0B35C825A4258F5559B533351BF4E3F4C0D
S31508002CE0B4491C477A44CE41173F563C8C39BA360C
S31508002CF0DF33FB30112E1F2B2628282523221A1FE7
S31508002D000B1CF918E215C812AB0F8C0C6A09480699
S31508002D1024030000DCFCB8F996F674F355F038ED98
S31508002D201EEA07E7F5E3E6E0DDDDD8DADAD7E1D42F
S31508002D30EFD105CF21CC46C974C6AAC3E9C032BEB5
S31508002D4086BBE4B84CB6C1B341B1CDAE65AC0BAAEF
S31508002D50BEA77EA54DA329A1159F0F9D189B319946
S31508002D605A979395DD933792A2901E8FAC8D4B8C14
S31508002D70FC8ABF8995887C8777868485A484D783CF
S31508002D801D837782E3816481F7809F805A8028803B
S31508002D900B8001800B8028805A809F80F780648191
S31508002DA0E38177821D83D783A484848577867C878D
S31508002DB09588BF89FC8A4B8CAC8D1E8FA290379262
S31508002DC0DD9393955A973199189B0F9D159F29A1C5
S31508002DD04DA37EA5BEA70BAA65ACCDAE41B1C1B3C6
S31508002DE04CB6E4B886BB32BEE9C0AAC374C646C9A7
S31508002DF021CC05CFEFD1E1D4DAD7D8DADDDDE6E0AC
S31508002E00F5E307E71EEA38ED55F074F396F6B8F9D8
S31508002E10DCFC0000342E00080000002070000000D2
S31508002E2028010008A42E000870000020E006000013
S31508002E304401000800000000010203040102030423
S31508002E40060708090204060800000000000000083A
S31508002E500008000800000000000000000000000054
S31508002E6000000000000000000000000070000020C4
S31508002E700000000000000000000000000000000044
S31508002E800000000000000000000000000000000034
S31508002E900000000000000000000000000000000024
S30908002EA00000000020
S705080000ED05
